:020000040800F2
:10000000A80500209D010008271A000831170008E4
:10001000251A00085F0900085D1C000800000000A8
:100020000000000000000000000000002B1A000883
:100030006109000800000000291A00082D1A0008B4
:10004000B7010008B7010008B7010008B7010008B0
:10005000B7010008B7010008B7010008B7010008A0
:10006000B7010008B7010008B7010008B701000890
:10007000B7010008B7010008B7010008B701000880
:10008000B7010008B7010008B7010008B701000870
:10009000B7010008B7010008B7010008B701000860
:1000A000B7010008B7010008B7010008B701000850
:1000B000B7010008B7010008B7010008B701000840
:1000C000B7010008B7010008B7010008B701000830
:1000D000B7010008B7010008B7010008B701000820
:1000E000B7010008B7010008B7010008B701000810
:1000F000B7010008B7010008B7010008B701000800
:10010000B7010008B7010008B7010008B7010008EF
:10011000B7010008B7010008B7010008B7010008DF
:10012000B7010008B7010008B7010008B7010008CF
:10013000B7010008B7010008B7010008B7010008BF
:10014000B7010008B7010008B7010008B7010008AF
:10015000B7010008B7010008B7010008B70100089F
:10016000B7010008B7010008B7010008B70100088F
:10017000B7010008B7010008B7010008000000003F
:10018000B7010008B7010008DFF80CD000F084FBCD
:1001900000480047B9370008A805002006488047F6
:1001A00006480047FEE7FEE7FEE7FEE7FEE7FEE75C
:1001B000FEE7FEE7FEE7FEE7B51A00088901000842
:1001C0002DE9F05F0546002092469B46884606468C
:1001D000814640241BE0284641464746224600F01F
:1001E0005EFA53465A46C01A914110D3114618463A
:1001F000224600F045FA2D1A67EB01084F462246C9
:100200000120002100F03CFA17EB00094E41201EAE
:10021000A4F10104DFDC484631462A464346BDE8E6
:10022000F09FD2B201E000F8012B491EFBD27047CB
:100230000022F6E710B513460A4604461946FFF7B2
:10024000F0FF204610BD421C10F8011B0029FBD115
:10025000801A70472DE9FE4F804681EA0300C00FE7
:100260000C46009021F0004123F00045B8EB02005D
:10027000A94105D24046214690461C460B460246FF
:1002800023F00040104347D0270DC7F30A00C3F303
:100290000A510290401A019040286BDAC3F3130010
:1002A00040F4801B0098924620B10023D2EB030A51
:1002B00063EB0B0B01985946C0F14002504600F029
:1002C000DFF906460D4650465946019A00F0F7F907
:1002D00010EB08006141002487EA115284EAE773B9
:1002E0001A4340D0009A62B3019A012A4FEA07529A
:1002F00015DC001B61EB02014FF0004202EA0752DD
:10030000CDE90042001C41F5801132462B4600F039
:100310002EFA03B0BDE8F08F40462146F9E7001BF6
:1003200061EB0201001C41F5801300185B412018AD
:10033000A2F5001747EB030140EAD570B6196D41ED
:1003400011E06D084FEA360645EAC0754FEA0752DC
:10035000001B61EB0201001C41F5801149084FEAC6
:1003600030000019514132462B4603B0BDE8F04F32
:1003700000F0EEB90098012240000023D0EB020209
:1003800063EBE073009821464FEAE074B8EB00009D
:1003900061EB0401E9E783F000435BE781F0004192
:1003A00058E72DE9FE4F81EA030404F0004421F0F0
:1003B000004100944FF0000B23F0004350EA010489
:1003C0005ED052EA03045BD0C3F30A54C1F30A556A
:1003D0002C44A4F2F3340194A0FB0254C1F31301A2
:1003E00041F48011C3F3130343F4801301FB02446F
:1003F00000FB034E840A970A44EA815447EA835774
:10040000A4FB076802958D0A05FB07854FEA932C2C
:1004100004FB0C542705029D4FEA065847EA16379D
:10042000B5EB08056EEB070C870E920E47EA8117B5
:1004300042EA8312A7FB0201B6EB0B0164EB000456
:100440002B0D43EA0C335E1844EB1C50DA46514640
:10045000E7FB0201C5F313044FEA0B3343EA1453DD
:100460004FEA0432019C43EA0603A4F10C0402940F
:10047000009CCDE900B400F07AF903B0BDE8F08F3C
:1004800000200146F9E72DE9F04D81EA030404F06C
:10049000004B21F0004514464FF0000A23F00041C4
:1004A00050EA050220D054EA01021DD0C5F30A57D4
:1004B0000246C5F31303C1F31300C1F30A5640F417
:1004C000801543F48013A7EB0608101BD64608F2EC
:1004D000FD3873EB050002D308F1010801E0921822
:1004E0005B41B8F1000F03DA00200146BDE8F08D52
:1004F00000204FF48011064684460EE0171B73EB74
:10050000050705D3121B63EB050306434CEA010CF8
:1005100049084FEA300092185B4150EA0107EDD1DB
:1005200052EA030012D082EA040083EA050108437C
:1005300005D0101BAB4106D20122002306E00022A9
:100540004FF0004302E06FF0010253101AEB060077
:100550004CEB085110EB0A0041EB0B01BDE8F04DEC
:1005600000F0F6B80EB5C10F80EAE0700844CA0783
:10057000002140F233438DE80E000A460B4600F09E
:10058000F6F803B000BD70B5C1F30A5201F00045A2
:100590000024C1F3130140F2FF3341F480119A4269
:1005A00001DA002070BD40F233439A42A2F2334296
:1005B00003DC524200F073F800E090402C43F1D08D
:1005C000404270BD00F0004230F000400AD0C10D42
:1005D00001F56071C0F3160042EA0151C2084007FC
:1005E00011437047002001467047000030B5041EDB
:1005F00071F1000404DB4FF00044404264EB010160
:10060000141E73F1000405DB1C464FF000435242F8
:1006100063EB04038B4208BF824230BD01F000430C
:1006200030B421F0004150EA010206D00A0DA2F5D3
:100630006072C1F31301002A02DC30BC0020704755
:10064000440F44EAC104C100E01830BC00EBC250C2
:1006500000F047B830B50B460146002020220124A7
:1006600009E021FA02F59D4205D303FA02F5491B80
:1006700004FA02F52844151EA2F10102F1DC30BD96
:10068000202A04DB203A00FA02F100207047914052
:10069000C2F1200320FA03F3194390407047202A47
:1006A00004DB203A21FA02F00021704721FA02F31C
:1006B000D040C2F120029140084319467047202AD9
:1006C00006DBCB17203A41FA02F043EAE07306E07A
:1006D00041FA02F3D040C2F120029140084319468A
:1006E00070470029A8BF7047401C490008BF20F090
:1006F0000100704710B4B0FA80FC00FA0CF050EA28
:10070000010404BF10BC704749B1CCF1200421FAA8
:1007100004F411FA0CF118BF012121430843A3EBA3
:100720000C01CB1D4FEA00614FEA102042BF0020B0
:1007300010BC704700EBC35010440029A4BF10BC8C
:100740007047401C490008BF20F0010010BC7047F2
:1007500010B5141E73F1000408DA401C41F10001C9
:1007600092185B411A4301D120F0010010BD2DE920
:10077000F04D92469B4611B1B1FA81F202E0B0FA17
:1007800080F220329046FFF77BFF04460F4640EA96
:100790000A0041EA0B0153465A46084313D011465A
:1007A00053EA010019D0C8F140025046FFF777FF25
:1007B00005460E46504659464246FFF761FF08433C
:1007C00005D0012004E020463946BDE8F08D002028
:1007D000054346EAE0762C4337430A986305E40A6A
:1007E000A0EB08000022FD0A44EA47540A3002D573
:1007F00000200146E9E7010510196941DDE90845D6
:1008000000196941BDE8F04DA2E770B521F0004341
:1008100003430CD0C1F30A550024D5EB040564EB67
:100820000403D617AD1AB34102DB0020014670BDA8
:10083000201841EB025170BDC1F30A52C1F31301FC
:1008400040F2FF3341F480119A4202DA002001465F
:10085000704740F233439A42A2F2334202DC5242E2
:10086000FFF71DBFFFF70CBF30B5041E71F1000488
:1008700004DB4FF00044404264EB0101141E73F1AD
:10088000000405DB1C464FF00043524263EB0403B7
:10089000994208BF904230BD064C074D06E0E06823
:1008A00040F0010394E8070098471034AC42F6D3B7
:1008B000FFF76EFC38400008584000082DE9F04D65
:1008C00000231A461B1A8A4103DB00200146BDE8BB
:1008D000F08DC1F30A52C1F3130141F480154FF0BA
:1008E000000BD10702D100186D41521E00270446AB
:1008F00040F2FF11384601EB620A3E46804602464E
:1009000000204FF48011FFF7CAFEC2197141BB18D5
:1009100046EB0100B4EB030C75EB000C04D3E41AB6
:1009200065EB000517460E46241908F101006D41DC
:1009300080463428E3DDF91946EB0600091BA8417F
:1009400003D24FF0FF32134601E0002213461BEBA7
:10095000070046EB0A51BDE8F04DFFF7F9BEFEE790
:100960007047000070B5044600F0F0F80546601CC2
:1009700002D004480078044400F0E8F8401BA0428C
:10098000FAD370BD380000202DE9F84F00224FF057
:10099000010803254FF00F0E0B6808FA02F42340FC
:1009A000A3426ED14E68012E05D0022E03D0112E27
:1009B00001D0122E12D186684FEA420C05FA0CF7CC
:1009C000BE43CF6807FA0CF7374387604668A643F3
:1009D0000C79C4F30014944034434460C668570053
:1009E00005FA07FC8C6826EA0C06BC403443C46058
:1009F0004C68022C01D0122C13D1D40800EB8404D3
:100A0000A346D4F8209054074FEAD46A0EFA0AF6A7
:100A100029EA06090E6906FA0AF646EA0906CBF83B
:100A2000206006680C7926EA0C0604F00304BC403A
:100A3000344304604C68E40065D5364C266846F4BF
:100A400080462660246822F0030604F48044009463
:100A5000314C3444A446D4F808489607370F0EFAB0
:100A600007F6B4432D4EB04201D1002624E02C4EAF
:100A7000B04201D101261FE02A4EB04202D1022627
:100A80001AE040E0284EB04201D1032614E0274E80
:100A9000B04201D104260FE0254EB04201D1052617
:100AA0000AE0244EB04201D1062605E0224EB042B3
:100AB00001D1072600E00826BE402643CCF808688E
:100AC0001E4E34684F689C43FF0300D51C433460BE
:100AD0001A4C241D26684F689E43BF0300D51E4351
:100AE0002660164E083634684F689C43FF0200D5D6
:100AF0001C433460114E0C3634684F689C43BF026F
:100B000000D51C433460521C102AFFF445AFBDE8E9
:100B1000F88F0000443802400030014000000240DD
:100B20000004024000080240000C02400010024095
:100B30000014024000180240001C0240003C01402A
:100B40000AB1816170470904FBE700000148806831
:100B5000704700003800002070B5040025D094F8DC
:100B60003D00002520B984F83C50204600F04EF9A5
:100B7000242084F83D002068016821F00101016013
:100B80002068016841F4004101602068016821F497
:100B90000041016000F094FA4D4A6168914201D829
:100BA0004C4900E04C49884201D2012070BD4B49BC
:100BB0002368B0FBF1F15E6826F03F060E435E60ED
:100BC0006368934206D94FF4967359434FF47A738E
:100BD000B1FBF3F12368491C1E6A26F03F0631433E
:100BE00019626168914210D84900401EB0FBF1F2D1
:100BF000521CC2F30B02042A01D2042022E0B0FBF3
:100C0000F1F0401CC0F30B001CE0A268F2B301EB52
:100C1000C10303EB0116431EB3FBF6F35B1C43F465
:100C200080431B0549D092B301EBC10202EB0111D5
:100C3000401EB0FBF1F0401CC0F30B0040F48040BC
:100C400040F400402168CA694CF6FF739A43104390
:100C5000C861D4E9071001432068026822F0C0028D
:100C600011430160D4E9030101432068826848F21E
:100C7000FF339A4311438160D4E905010843216899
:100C8000CA6822F0FF021043C86001E00EE016E0DF
:100C90002068016841F0010101602564202084F88A
:100CA0003D00256384F83E50002070BD01EB4106F5
:100CB000431EB3FBF6F35B1CB3E70120C2E701EB75
:100CC0004101401EB0FBF1F0401CC0F30B00B7E740
:100CD000A086010080841E0000093D0040420F00F4
:100CE0002DE9F84F1F4690468A460446DDF82890C5
:100CF000FFF72CFF054694F83D0020287FD11923EB
:100D0000012240492046009500F09EFD002876D142
:100D100094F83C00012872D0012084F83C0020683F
:100D20000168C90703D1016841F001010160206831
:100D3000016821F400610160212084F83D00102049
:100D400084F83E0000262664C4F824806785608D00
:100D500020852D48E0622B464A465146204600F049
:100D6000FFFC90B9206841698069009036E02A460E
:100D70004946204600F0E7FD50B1206C042804D11C
:100D80002068016841F4007101600120BDE8F88F1E
:100D9000606A216800780861606A401C6062618D49
:100DA000491E6185218D491E89B2218522685369BA
:100DB000DB435B070BD451B100781061606A401CC3
:100DC0006062608D401E6085208D401E20852A4611
:100DD0004946204600F012FD0028CED1208D002883
:100DE000C5D154F83D0B016841F400710160202029
:100DF00004F81E09E67766770020C7E7FFE70220C0
:100E0000C4E70000020010000000FFFF10B586B02C
:100E1000044614216846FFF70BFA134920688842FC
:100E200020D11248016841F0020101600068694662
:100E300000F002000590C0200090122001900120D7
:100E4000029003200390042004900948FFF79CFDC2
:100E500006481030016841F400110160006800F498
:100E60000010059006B010BD00540040303802401C
:100E70000004024002488168027811448160704792
:100E8000380000200B4810B5016841F40071016082
:100E9000016841F480610160016841F48071016082
:100EA000032000F061F8002000F006F800F024F8BC
:100EB000002010BD003C024070B50D4D04464FF4BB
:100EC0007A712878B1FBF0F00A490968B1FBF0F0BB
:100ED00000F0F6FA48B9102C07D200222146501E25
:100EE00000F022F800206C6070BD012070BD000091
:100EF00038000020440000200A4808B5016841F489
:100F000080410160006800F4804000900548001FA7
:100F1000016841F080510160006800F0805000904D
:100F200008BD000044380240F0B40E4B1B680C466C
:100F3000C3F30223C3F10705042D00D90425191DAD
:100F4000072901D2002300E0DB1E012606FA05F185
:100F5000491E214099409E40761E16403143F0BC08
:100F600000F0AABE0CED00E0064900F00702086898
:100F70004FF6FF03184040EA0220034A104308607E
:100F8000704700000CED00E00000FA052DE9F04785
:100F90000E46050065D0DFF81481D8F80000F7B2DE
:100FA00000F00F00B04207D288F80070D8F80000B7
:100FB00000F00F00B04254D128683D4C810712D593
:100FC000400703D5206840F4E050206028780007EF
:100FD00003D5206840F4604020602068A96820F0B4
:100FE000F000084320602878C0072DD03049686899
:100FF0000839012812D0022813D0032811D009681B
:10100000890700292DDA216821F0030101432160BD
:10101000FFF79CFD814641F2883A0EE0096889039A
:10102000EFE709688901ECE7FFF790FDA0EB090104
:10103000514502D90320BDE8F0872068696800F0B7
:101040000C00B0EB810FEFD1D8F80010404601F052
:101050000F01B14207D90770006800F00F00B042DD
:1010600001D00120E7E72878400705D52068E96826
:1010700020F4E050084320602878000706D5206857
:10108000296920F4604040EAC100206000F038F88F
:101090002168084AC1F30311515CC8400649086041
:1010A00006480068FFF708FF0020C4E7003C024044
:1010B000083802408A3F0008440000203C0000201D
:1010C0000448054900680968044AC1F38221515C5B
:1010D000C840704744000020083802409A3F00088A
:1010E0000448054900680968044AC1F34231515C6B
:1010F000C840704744000020083802409A3F00086A
:10110000154810B5006810F00C02144813D01449AB
:10111000042A0FD0082A0ED10F4C241F22682368FE
:1011200002F03F025B0207D52068C0F38810A0FBE5
:10113000010106E0084610BD2168C1F38811A1FB3A
:1011400000010023FFF73CF82168C1F30141491C6D
:101150004900B0FBF1F010BD083802400024F40053
:1011600040787D012DE9F84F04006ED02078DFF83B
:101170003C93C007A9F104054AD009F104000168B5
:10118000C1F38101012908D00068C0F38100022861
:101190000AD1D9F80000400206D52868800337D567
:1011A00060680028E1D033E06068B0F5803F10D07F
:1011B000B0F5A02F286810D020F48030286028686F
:1011C00020F4802028606068A8B1FFF7BFFC0646C5
:1011D0000DE0286840F48030F4E740F48020286077
:1011E000F7E700BFFFF7B2FC801B642873D82868BC
:1011F0008003F7D50CE0FFF7A9FC064605E000BF29
:10120000FFF7A4FC801B6428F0D828688003F7D47B
:101210002078DFF89C8280074FF0000A3ED5A34873
:10122000001D016811F00C0F08D00068C0F38100A8
:1012300002280BD1D9F80000400207D428688007A3
:1012400016D5E068012800D112E02BE1E068B8B1C2
:101250000120C8F80000FFF779FC064605E000BF52
:10126000FFF774FC801B0228C0D828688007F7D5D8
:101270002868216920F0F80040EAC10028600DE0EC
:10128000C8F800A0FFF762FC064604E0FFF75EFC2A
:10129000801B02281FD828688007F7D42078000711
:1012A00022D5824E83486169703671B10121016097
:1012B000FFF74CFC074604E0FFF748FCC01B022880
:1012C00009D830688007F7D50EE0C0F800A0FFF716
:1012D0003DFC074605E082E0FFF738FCC01B022812
:1012E0007DD830688007F7D42078400768D5DFF8CC
:1012F000BCB100270BF13C0BDBF80000C0000BD4A5
:10130000DBF8001041F08051CBF80010DBF8000052
:10131000012700F080500090674E3068C00510D45F
:10132000306840F480703060FFF710FC009005E0FA
:10133000FFF70CFC0099401A022850D83068C0050D
:10134000F6D55A4EA0686C3601280FD005283068B3
:1013500010D020F001003060306820F004003060D0
:10136000A068B8B1FFF7F2FB00900FE0306840F0E2
:101370000100F4E740F004003060F7E7FFF7E6FB18
:101380000099411A41F28830814266D8306880075E
:10139000F4D50EE0FFF7DAFB009007E0FFF7D6FB8D
:1013A0000099411A41F28830814256D8306880074E
:1013B000F4D42FB1DBF8001021F08051CBF80010ED
:1013C000A069C8B33949091D0968C1F3810102291F
:1013D0004AD00228504607D0C8F8600000E03CE040
:1013E000FFF7B4FB04463BE04746C8F86000FFF750
:1013F000ADFB064605E000BFFFF7A8FB801B0228F7
:101400002BD828688001F7D4D4E907010843A16AE2
:101410002A4A490802EB0141626A41EA8211084303
:1014200094F82C1040EA0161C9F8001001203866D8
:10143000FFF78CFB044606E036E000BFFFF786FBB3
:10144000001B022809D828688001F7D52CE000BFCE
:10145000FFF77CFB001B022802D90320BDE8F88FB0
:1014600028688001F4D41FE00128F7D0D9F80000E3
:10147000E26900F48001914214D1226A00F03F0138
:1014800091420FD147F6C071626A0140914209D181
:10149000A26A00F44031914204D1E16A00F0706028
:1014A000884201D00120D9E70020D7E70438024064
:1014B00000004742800E4742007000400000FFFFDE
:1014C00010B5401EB0F1807F01D3012010BD4FF058
:1014D000E02460610F21601700F0EEFB0020A061A6
:1014E00007202061002010BD70B5040004D094F8DE
:1014F0003900002510B106E0012070BD84F8385095
:10150000204600F023F8242084F839002068C168C0
:1015100021F40051C160204600F0DAFA2068016928
:1015200021F4904101612068416921F02A01416163
:101530002068C16841F40051C160E563202084F84F
:10154000390084F83A00002070BD000010B586B064
:10155000044614216846FEF76BFE14492068884251
:1015600021D113480021026842F480220260006801
:1015700000F4802005900E481038026842F0020204
:101580000260006800F0020005904FF44060009097
:101590000220CDE901010320039007200490694651
:1015A0000448FFF7F1F906B010BD00000048004004
:1015B00040380240000402402DE9F843044690F808
:1015C0003A00994616460D46202852D1BDB1B6B113
:1015D00094F8380001284CD0012084F83800002706
:1015E000E763222084F83A002C34FFF7AFFA24F89E
:1015F000026B804624F80A6B04F8387931E0012048
:10160000BDE8F883E08D401EE085A0684346B0F554
:10161000805F4FF000024FF020012046CDF800908F
:1016200004D000F0E9FA98B10320E9E700F0E4FA09
:101630000028F9D1206900282068406803D0C1B291
:1016400025F8011B0DE0C0F3080125F8021B08E096
:10165000206900282068406801D000F07F0005F86C
:10166000010BE08D0028CDD1202084F83A00002025
:10167000C6E70220C4E72DE9F843044690F8390094
:101680001F4616460D46202850D1B5B1AEB194F88C
:10169000380001284AD0012084F838004FF00008B3
:1016A000C4F83C80212084F83900FFF74FFAA68463
:1016B0008146E68484F8388026E00120BDE8F8837E
:1016C000E08C401EE084A0684B46B0F5805F4FF090
:1016D00000024FF080012046009703D000F08CFA02
:1016E000E8B90DE000F088FAC8B928882168C0F38D
:1016F00008004860206908B16D1C05E0AD1C03E0DE
:10170000216815F8010B4860E08C0028D8D14B46C1
:10171000002240212046009700F06EFA08B1032015
:10172000CCE7202084F839000020C7E70220C5E775
:10173000FEE701684A69D24352050FD46FF4806214
:101740004A61002140F8301F2022427381730269F0
:1017500042F00402026101730120704700207047CB
:10176000F8B50446C06A1E460D461746082807D03D
:10177000012805D010F5803F02D0206B122804D13B
:101780002068016841F480710160134600224FF027
:1017900001112046009600F057F840B1206800681B
:1017A000C00502D54FF4007020640320F8BD206905
:1017B000B0F5804F0ED00620216800EAD51040F029
:1017C000F000086133463A460B49204600F070F8B5
:1017D00078B902E005F0FE0000E0E8B22168086197
:1017E000054933463A46891F204600F061F8002833
:1017F000DCD00120F8BD00000800010070B51646DD
:101800000D4604460DE02046FFF793FF08B1012086
:1018100070BD681C05D0FFF799F9801BA84207D856
:1018200035B120684069C0434007ECD4002070BD4A
:10183000002044F8300F20216173A073216941F02A
:10184000200121612073E2E72DE9F0471E46904612
:101850000D460446C1F30747DDF8209008E0701CF0
:1018600006D0FFF773F9A0EB0900B0420FD876B1AC
:101870002068012F18D0806925EA00000004000CC0
:1018800014D000214145EAD00020BDE8F0870020B7
:1018900044F8300F20216173A073216941F02001C9
:1018A000216120730120F0E74069E5E70121E9E7C4
:1018B0002DE9F0479A4691460E46044600254FF022
:1018C0002008C1F3074725E020684069C043400570
:1018D00014D42068016841F40071016021686FF43C
:1018E00080604861256384F83D8084F83E50206C18
:1018F00040F00400206484F83C501FE0B9F1FF3F41
:1019000008D0FFF723F9A0EB0A0149450CD8B9F13B
:10191000000F09D02068012F13D0806926EA00004B
:101920000004000C0BD0CFE744F8305F84F80D8042
:10193000A573206940F02000206125730120BDE8D7
:10194000F0874069EAE770B516460D4604460DE09B
:101950002046FFF7EEFE08B1012070BD681C05D0DF
:10196000FFF7F4F8801BA84207D835B1206840691A
:10197000C0430006ECD4002070BD002044F8300FB6
:1019800020216173A073216941F02001216120733E
:10199000E2E70000F0B587B014216846FEF748FC86
:1019A0001D480024016841F080010160016801F0D8
:1019B00080010591016841F001010160016801F0B9
:1019C00001010591016841F002010160016801F027
:1019D00002010591016841F00801016000680F4FA4
:1019E00000F008004FF4704605900022314638465A
:1019F000FFF7A6F80125CDE900546946084802948E
:101A0000FEF7C2FF0096CDE90154694638460394BB
:101A1000FEF7BAFF07B0F0BD30380240000C0240BC
:101A200000000240FEE7704770477047FFF722BA98
:101A300030B593B030216846FEF7FAFB14210CA8AC
:101A4000FEF7F6FB19480025016841F0805101605E
:101A5000006800F0805011901548016841F4804101
:101A600001600068022400F480401190012003907E
:101A700010200490009406940820CDE90750A82077
:101A8000CDE9090404200B906846FFF76BFB0CA915
:101A90000F2081E831004FF4A0500F90E002109029
:101AA00005210CA8FFF772FA13B030BD4038024090
:101AB000007000400548016841F47001016003496D
:101AC0004FF00060803908607047000088ED00E04A
:101AD0002DE9F041044600680169E26821F44051B3
:101AE000114301612169A068E269084361691143FA
:101AF00008432168CA6849F20C639A430243CA60EA
:101B000020684169A26921F4407111434161E06993
:101B1000192764253226B0F5004F354A354920682B
:101B20004FF0000806D0884201D0904236D1FFF72E
:101B3000D7FA35E0884201D0904202D1FFF7D0FABF
:101B400001E0FFF7BDFA61684A18A0FB070148EB06
:101B50000803FEF735FB0146B0FBF5F00201B1FBCF
:101B6000F5F06FF01803584301EB800006EBC0005E
:101B7000B0FBF5F000F0F80002EB4002B1FBF5F02D
:101B8000584301EB800006EBC000B0FBF5F000F01D
:101B90000700216810448860BDE8F081FFF790FAE3
:101BA00061688B0F8A00A0FB0701FEF709FB014665
:101BB000B0FBF5F06FF01802504301EB800006EB2C
:101BC0000010B0FBF5F000F0F002B1FBF5F002EB15
:101BD0000012B1FBF5F06FF01803584301EB8000E1
:101BE00006EB0010B0FBF5F000F00F00D1E70000AD
:101BF00000140140001001402DE9F04198461746BD
:101C00000E460446069D1DE0681C1BD02DB1FEF754
:101C10009DFFA0EB0800A84214D92068C16821F4F8
:101C2000D071C1602068416921F00101416120202B
:101C300084F8390084F83A00002084F83800032042
:101C4000BDE8F0812068006836EA000004D000207A
:101C5000B842D9D00020F3E70120F9E7FEE7000001
:101C60000FB4084B10B504A902AA039801F004F8B8
:101C7000044602A9002001F096FB204610BC5DF846
:101C800014FB0000A733000803B40198410000983A
:101C900050EAC12018BF04204A0D18BF40F00100CF
:101CA00040F2FF72B2EB515F08BF40F00200012822
:101CB00008BF052002B070470907090E002804DBA1
:101CC00000F1E02080F80014704700F00F0000F1F0
:101CD000E02080F8141D70472DE9F04D2DED040B28
:101CE0002DED0E8B96B0DDE92550279CDDF890A0F8
:101CF00025F0004624F00048BAF1000F14BF01217E
:101D0000002101EB4502FC4953184A1093422AD3A3
:101D1000002814BF0123002303EB44030B44F749BD
:101D20008B4220D358EA00019FEDF59B76D0DFF877
:101D3000D8B35D4503D1BAF1000F05D188E0BAF1FF
:101D4000000F08BF002100D0012101EB450111F572
:101D5000001F08D8002814BF0121002101EB440115
:101D600011F5001F0BD99DED261B9DED240B16B020
:101D7000BDEC0E8B04B0BDE8F04D00F069BE00274D
:101D8000002DBCBFE149884521DAE1498845A8BF5B
:101D900002271CDAC3451ADCDE4901EB285114295D
:101DA00008DDC1F1340220FA02F101FA02F28242A6
:101DB0000DD108E058B9C1F1140228FA02F101FA74
:101DC00002F2424503D101F00101C1F1020756EAD6
:101DD0000A0124D1002C22DA002D18BF022F01D0D5
:101DE000012F0AD0022000F07FFE16B0BDEC0E8B52
:101DF00004B0BDE8F04D00F013BE022000F074FE08
:101E000000F00EFE51EC100B81F0004141EC100B84
:101E100016B0BDEC0E8B04B0BDE8F08D18E09FED60
:101E2000BEAB9FEDBF8B002871D1B848804522D151
:101E300005F1804010F5801008BFBAF1000F07D0FF
:101E4000B3450ADC002CA8BF9DED260BE0DA0DE0BF
:101E5000B0EE490AF0EE690ADAE7002C06DA9DEDE9
:101E6000260B51EC100B81F000416FE0AE48784436
:101E700090ED000BCCE7D8454DD1002C48DA2EB1BF
:101E800086423AD1BAF1000F42D126E0BAF1000FF2
:101E900013D0022000F028FE00F0F6FD8DED020BBD
:101EA0009DED240B8DED000B10EE900A039961F36C
:101EB0001E0003909DED020BAAE78DED02AB9DED98
:101EC000240B1AEE901A10EE900A8DED000B61F3C0
:101ED0001E0003909DED020B9AE78DED028B9DEDA8
:101EE000240B18EE901A10EE900A8DED000B61F3A2
:101EF0001E0003909DED020B8AE709DA9DED240B8D
:101F000051EC190B53EC102BFEF7BDFA1EE020E04C
:101F10009DED240B7CE786421BDAB4F1804F0DD097
:101F2000A4F10050B0F1FF5013D1002D11DB9DED55
:101F3000240B51EC100B01F0F1FF07E09DED240B99
:101F400053EC102B51EC100B00F0C2BC41EC100B09
:101F50005EE79DED240B51EC100B01F08FFBBAF105
:101F6000000FCDE90E0142D19FED710B46B3A6F1F2
:101F7000E040B0F17F600CD05E4538D1002D00DA32
:101F8000A7B3022F0CBF01204FF0FF30FEF7EAFA93
:101F9000DCE7002D01DD002C0DDA002D01DD002C29
:101FA0001FDB002D16DA002C14DB012F08BF9FED7C
:101FB000620B3FF42DAFB0EE4A0AF0EE6A0A27E753
:101FC000022F18BF002D0CD0012F0AD1002DFFF6D3
:101FD0001FAF06E0002DB8BF002C08DA012F3FF438
:101FE00017AFB0EE480AF0EE680A11E71BE00120D7
:101FF00000EBE57050EA070115D0791EB0EE498A72
:10200000F0EE698A084308BF9FED4D8B4E480025CE
:10201000804570DD4D494E48884514DDB0420DDBEA
:10202000002C19DB2FE0012000F05EFD16B0BDECA6
:102030000E8B04B0BDE8F04D00F016BDB34502DCD8
:10204000002C09DC1FE0864202DA002C1BDA03E0D8
:102050005E452BDD002C16DD022000F045FD00F072
:1020600013FD8DED020B53EC1A2B51EC180BFEF700
:1020700098F9CDE900010399019861F31E000390DE
:102080009DED020BC4E6022000F02EFD00F00CFDD9
:1020900010EE901A18EE900A8DED020B8DED008B6C
:1020A00061F31E0003909DED020BB1E69DED0E0B5A
:1020B00053EC192B51EC100BFEF76DF99FED260B2D
:1020C000CDE9080153EC102B9DED080B51EC100BE2
:1020D000FEF767F99FED221B53EC112BFEF75EF91B
:1020E0009DED081B53EC112BFEF75BF99FED1E1BBA
:1020F00053EC112B3CE08CE0FFFF1F00FFFF0F00B3
:10210000000000000000F03F0000F03F0000F07F02
:102110000000404301FCFFFF000000000000F07FD2
:102120000000000000000000BE21000000000000D0
:102130000000000000000080000000000000F0FF30
:10214000000000000000F0BF0000E0410000F0438C
:10215000FFFFEF3F00000000000000000000D03F44
:10216000555555555555D53F000000000000E03F3E
:10217000FEF714F99DED080B41EC1A0B53EC102BF4
:1021800051EC100BFEF70DF953EC1A2BFEF709F981
:1021900041EC1A0B9FEDFE0B53EC102B9DED080B41
:1021A00051EC100BFEF7FDF841EC1B0B9FEDFA0B09
:1021B00051EC1A0B53EC102BFEF7F3F841EC1A0B11
:1021C0009FEDF70B53EC102B9DED080B51EC100B12
:1021D000FEF7E7F853EC1A2BFEF7DDF841EC1A0B8B
:1021E00051EC1B0B53EC1A2BFEF734F80690CDE99B
:1021F00006519DED060B53EC1B2B51EC100BFEF71B
:10220000CAF853EC1A2BFEF7C9F841EC100B00F09A
:10221000A1B90020B6F5801F0EDA9FEDE30B53EC59
:10222000102B9DED0E0B51EC100BFEF7BAF8CDE91B
:102230000E016FF034000E4600EB2650A0F2FF377F
:10224000C6F31300DA4940F07F6646F040568842F4
:10225000D8BF002408DDD7498142C8BF012403DC70
:102260000024A6F580167F1CD348784400EBC400F8
:102270000F9690ED00CB9DED0E0B53EC1C2B51EC0B
:10228000100BFEF788F89DED0E0B41EC1B0B53EC89
:102290001C2B51EC100BFDF7DDFF41EC100B51EC4A
:1022A000190B53EC102BFEF7EEF841EC1D0B51EC23
:1022B0001B0B53EC1D2BFEF774F841EC1A0BBF48B7
:1022C0008DED10AB7844109590ED000B4FF0005061
:1022D00040EA660000EB84408DED080B00F500201D
:1022E00009909DED080B53EC1C2B51EC100BFEF7E5
:1022F00052F89DED0E1B53EC112BFEF74FF841ECFD
:10230000100B53EC102B9DED100B51EC100BFEF746
:1023100048F89DED080B41EC1C0B53EC102B9DED88
:10232000100B51EC100BFEF73CF853EC1B2BFEF797
:1023300035F853EC1C2BFEF72EF853EC1D2BFEF753
:1023400030F841EC1C0B53EC1A2B51EC1A0BFEF736
:1023500028F841EC1B0B9A480621B0EE4B0AF0EE30
:102360006B0A784400F0E0FAB0EE401AF0EE601A22
:10237000B0EE41DAF0EE61DA53EC1B2B51EC1B0BA3
:10238000FEF70FF853EC1D2BFEF70BF89DED100B2D
:1023900041EC1B0B53EC1A2B51EC100BFDF75AFFC1
:1023A00053EC1C2BFDF7FDFF53EC1B2BFDF752FFED
:1023B0009DED100B41EC1B0B53EC102B51EC100B53
:1023C000FDF7EFFF41EC1D0B9FED7FEB53EC1E2B58
:1023D000FDF740FF53EC1B2BFDF73CFF0890CDE9C8
:1023E00008519DED080B53EC1E2B51EC100BFDF723
:1023F000D2FF53EC1D2BFDF7CEFF53EC1B2BFDF74B
:10240000CDFF9DED080B41EC1D0B53EC102B9DED0A
:10241000100B51EC100BFDF7C4FF41EC1B0B53EC00
:102420001A2B51EC1D0BFDF7BCFF9DED080B41EC89
:102430001A0B53EC102B51EC1C0BFDF7B2FF53ECB5
:102440001A2BFDF707FF41EC1A0B51EC1B0B53EC59
:102450001A2BFDF7FFFE0C90CDE90C519DED0C0BF6
:1024600053EC1B2B51EC100BFDF795FF53EC1A2B83
:10247000FDF794FF41EC1B0B9FED550B53EC102B1C
:102480009DED0C0B51EC100BFDF78BFF41EC1A0B83
:102490009FED510B51EC1B0B53EC102BFDF781FF03
:1024A00041EC1B0B9FED4E0B53EC102B9DED0C0BD9
:1024B00051EC100BFDF775FF53EC1B2BFDF7CAFE1B
:1024C00041EC100B4848784400EBC40090ED001B31
:1024D00051EC100B53EC112BFDF7BCFE41EC1B0B28
:1024E0003846FEF73FF8CDE9080153EC1B2B51ECC1
:1024F0001A0BFDF7AFFE41EC100B3C48784400EBA3
:10250000C40090ED00CB51EC100B53EC1C2BFDF7ED
:10251000A1FE9DED081B53EC112BFDF79BFE0690D1
:10252000CDE906519DED080B53EC102B9DED060BEC
:1025300051EC100BFDF72FFF53EC1C2BFDF72BFF7D
:1025400053EC1A2BFDF727FF53EC1B2BFDF726FF4F
:1025500041EC100B9DED261B53EC102B8DED001B59
:1025600000959DED260B51EC100BFDF71AFF9DED2C
:10257000000B41EC1A0B53EC102B9DED260B51EC8C
:10258000100BFDF708FF9DED061B53EC112B2FE000
:10259000000000604715F73FFE822B654715F73FA7
:1025A00044DF5DF80BAE543E0000000000004043E5
:1025B0008E9803007AB60B003A1D0000681D0000DB
:1025C000721C000000000000000000000000084035
:1025D000000000E009C7EE3FFD033ADC09C7EE3F0B
:1025E000F5015B14E02F3EBEFE1A0000B81A000091
:1025F000FDF7D7FE53EC1A2BFDF72CFE9DED060BD5
:1026000041EC1A0B53EC102B9DED000B51EC100B11
:10261000FDF7C7FECDE90C019DED0C0B51EC1A0B3B
:1026200053EC102BFDF716FECDE902010C46AA492A
:102630008C422FDB611A084318D19DED0C0B53EC33
:10264000102B9DED020B51EC100BFDF7A4FE41EC9D
:102650001B0B9FEDA30B51EC1A0B53EC102BFDF74A
:10266000F9FD53EC1B2BFEF7FFF82DD2022000F0F2
:102670003BFA00F009FA10EE901A18EE900A8DED70
:10268000020B8DED008B61F31E0003909DED020B9C
:10269000FFF7BEBB944A24F00041914214D3934902
:1026A000214408437FF4EFAC9DED0C0B53EC102B51
:1026B0009DED020B51EC100BFDF76DFE53EC1A2B48
:1026C000FEF7D2F87FF6DFAC24F000408849894A53
:1026D000002601EB205182422BDA481C4FF4801176
:1026E00021FA00F02044844AC0F30A517A44A1F24E
:1026F000FF3192ED000B814A8DED080BCA4020EAB4
:102700000202C0F3130040F48010C1F1140120FA5A
:1027100001F60992002CB8BF76429DED080B53ECF0
:10272000102B9DED0C0B51EC100BFDF734FECDE999
:102730000C019DED0C0B51EC1A0B53EC102BFDF71B
:1027400089FD9FED6F0B0890CDE9085153EC102BDC
:102750009DED080B51EC100BFDF723FE41EC1B0B1C
:102760009FED690B53EC102B9DED080B51EC100BFA
:10277000FDF717FE9DED0C0B41EC1C0B53EC102BE1
:102780009DED080B51EC100BFDF705FE53EC1A2BD9
:10279000FDF704FE9FED5E1B53EC112BFDF701FED0
:1027A00053EC1C2BFDF756FD41EC1A0B51EC1B0BA7
:1027B00053EC1A2BFDF74EFDCDE902019DED020B06
:1027C00053EC1B2B51EC100BFDF7E5FD53EC1A2BD2
:1027D000FDF7E4FD9DED020B41EC1A0B53EC102BC1
:1027E00051EC100BFDF7DDFDCDE908014A489DEDE8
:1027F000080B0521784400F097F89DED081B51EC7B
:10280000100B53EC112BFDF7CCFD9DED021B53EC8F
:10281000112BFDF7C3FDCDE906019DED020B53EC35
:102820001A2B51EC100BFDF7BCFD53EC1A2BFDF7E6
:1028300011FD9FED3B0B41EC1A0B53EC102B9DED62
:10284000060B51EC100BFDF7A6FD9DED060B41ECC0
:102850001B0B53EC102B9DED020B51EC100BFDF7F5
:10286000A0FD53EC1B2BFDF70EFE53EC1A2BFDF7CE
:1028700092FD9DED021B53EC112BFDF78CFD53ECEB
:10288000192BFDF78BFDCDE9020101EB0650011577
:102890000029C8BF039015DC9DED020B324651ECB8
:1028A000100BFDF7B2FFFFF7EFF9042808BF00F0A7
:1028B000FBF832469DED020B51EC100BFDF7A5FF26
:1028C000CDE902019DED020B51EC180B53EC102BDE
:1028D000FDF767FDFFF73ABB0000904000000000E5
:1028E000FE822B654715973C00CC904000346F3F2B
:1028F00001FCFFFF0000E03F40190000FFFF0F0058
:1029000000000000432EE63F396CA80C615C20BE3D
:10291000EF39FAFE422EE63F1018000000000000DA
:10292000000000000000004070B504462DED028B51
:102930004D1E00EBC500B0EE408AF0EE608A90EDCF
:10294000000B35F0060017D053EC182B51EC100B90
:10295000FDF727FD41EC100B6D1E04EBC50090ED5B
:10296000001B51EC100B53EC112BFDF773FC41ECE9
:10297000100B35F00600E7D1022D36D0042D1CD007
:10298000062D1CBFBDEC028B70BD53EC182B51EC17
:10299000100BFDF706FD94ED0A1B53EC112BFDF710
:1029A00059FC53EC182BFDF7FCFC94ED081B53EC81
:1029B000112BFDF74FFC41EC100B53EC182B51EC95
:1029C000100BFDF7EEFC94ED061B53EC112BFDF7FD
:1029D00041FC53EC182BFDF7E4FC94ED040B53EC95
:1029E000102BFDF737FC41EC100B53EC182B51EC7E
:1029F000100BFDF7D6FC94ED021B53EC112BFDF7E9
:102A000029FC53EC182BFDF7CCFC94ED001B53EC88
:102A1000112BFDF71FFCBDEC028B41EC100B70BDC0
:102A20009FED070B10B553EC102B9FED070B51ECEE
:102A3000100BFDF728FD41EC100B10BD000000004D
:102A40000000000000000000000000000000F03F57
:102A500010B553EC112B51EC100BFDF7FBFB41ECC7
:102A6000100B10BD000000009FED050B10B553ECDE
:102A7000102B51EC100BFDF706FD41EC100B10BDB7
:102A800000000000000000009FED050B10B553ECA6
:102A9000102B51EC100BFDF784FC41EC100B10BD1A
:102AA00000000000000000709FED050B10B553EC16
:102AB000102B51EC100BFDF774FC41EC100B10BD0A
:102AC000000000000000001002E008C8121F08C14A
:102AD000002AFAD170477047002001E001C1121F9F
:102AE000002AFBD1704700000149086070470000D0
:102AF000480000202DE9FF5F82B00021DDE90430AD
:102B0000020DDDF840B0034318D044F61050A2F295
:102B1000FF3242431514119801281FD0A5EB0B007A
:102B2000401C5FEA000A4FF000064E4FDFF8389174
:102B3000B046504615D5CAF1000413E0119801249F
:102B40004AA3012801D16FEA0B010298119AC0E94A
:102B50000031C0E9024206B0BDE8F09FCBF10000B1
:102B6000DFE704460021404A491842EB0450CDE912
:102B7000001012E0E00707D032463B464046494687
:102B8000FDF70FFC8046894632463B461046194603
:102B9000FDF707FC06460F466410002CEAD1DDE97C
:102BA0000401DDE90023BAF1000F06DAFDF7F9FBB5
:102BB00042464B46FDF7F5FB05E0FDF764FC424657
:102BC0004B46FDF760FC04460E460022284BFDF7FD
:102BD0004BFE03D84FF0FF30014607E00022254BA3
:102BE00020463146FDF736FBFDF726FE102409E0AE
:102BF000002C0ADB0A220023FDF7E2FA039B3032A5
:102C00001A55641E50EA0102F2D1641C039AC4F101
:102C100011031444119A012A03D0012208430DD153
:102C20000AE0084304D000204FF0110B119072E726
:102C3000A3EB0B056D1E0DE05B4504DD4FF00002BC
:102C400005F1010504E003DA4FF00002A5F10105EA
:102C5000002AECD002981199C0E90231C0E9004580
:102C600079E70000000014400000F03F3000000051
:102C70000000F0430000E03F2DE9FF4F95B09B4678
:102C80008946064600250FE2252877D100242746ED
:102C9000F84A0121059400E0044316F8013F203B67
:102CA00001FA03F01042F7D130782A2811D06FF0E2
:102CB0002F033078A0F13002092A16D8059A44F083
:102CC000020402EB820203EB42021044761C0590E0
:102CD000EFE759F8042B0592002A03DA504244F436
:102CE0000054059044F00204761C30782E2816D14A
:102CF00016F8010F44F004042A280DD06FF02F02BB
:102D00003078A0F13003092B09D807EB870302EBD9
:102D10004303C718761CF3E759F8047B761C307818
:102D20006C280FD006DC4C2817D068280DD06A28F4
:102D300014D104E0742810D07A280FD10DE044F4A7
:102D400000140AE044F4801401E044F44014727862
:102D5000824202D104F58014761C761C30786628F5
:102D60000BD013DC582877D009DC002875D0452813
:102D7000F6D04628F4D047281AD19DE118E0632800
:102D800035D0642879D0652812D195E1702873D0A8
:102D900008DC6728F1D069286FD06E280DD06F2825
:102DA00006D1B5E073282CD0752875D0782874D05A
:102DB0005A46179990476D1C75E1C4F302500228DA
:102DC00009D003280DD0D9F8001004280DD00D60CB
:102DD00009F1040967E1D9F80010EA17C1E90052C6
:102DE000F6E7D9F800100D80F2E70D70F0E719F85A
:102DF000041B8DF8001000208DF80100EA46012028
:102E000003E059F804AB4FF0FF3061074FF00001C9
:102E100002D40DE008F101018846B9420FDA80457D
:102E2000F8DB1AF808100029F4D108E008F10101D4
:102E300088468142FADB1AF808100029F6D1059875
:102E40005B46A0EB080721463846179A00F094FA33
:102E5000284400EB080507E04DE029E10DE01AF8F1
:102E6000010B5A4617999047B8F10108F7D25B4613
:102E700021463846179A13E142E00A220092C4F331
:102E800002524FF0000A022A08D059F804CB032A54
:102E90004FEAEC710AD00DE029E02AE009F10701C0
:102EA00021F00702F2E802C1914609E00FFA8CFC1A
:102EB0004FEAEC71042A03D14FFA8CFC4FEAEC7113
:102EC000002907DA0A460021DCF1000C61EB02015F
:102ED0002D2202E0220504D52B228DF804200122A8
:102EE00003E0E20701D02022F7E7904659E00A21EB
:102EF00002E010220DE010214FF0000A00910BE0DB
:102F000010224FF0000A44F004040827009203E066
:102F100008224FF0000A0092C4F30252022A05D0A0
:102F200059F804CB0021032A08D009E009F1070170
:102F300021F00702F2E802C1914605E01FFA8CFC7D
:102F4000042A01D10CF0FF0C4FF00008220728D50D
:102F5000702806D0009B83F0100353EA0A0305D0C3
:102F60000EE040228DF80420012208E05CEA010214
:102F700006D030228DF804208DF8050002229046FC
:102F8000009B83F0080353EA0A030AD15CEA0102BA
:102F900001D1620705D530228DF804204FF00108D9
:102FA0007F1E582804D034A003900EA802900DE094
:102FB00036A0F9E753466046009AFDF701F98446CA
:102FC0000398825C0298401E029002705CEA010045
:102FD000F0D1029806A9081A00F1200A600702D56C
:102FE00024F4803400E00127574502DDA7EB0A00F6
:102FF00000E0002000EB0A01009005984144401ACF
:103000000590E00306D45B462146179A059800F028
:10301000B3F90544002706E001A85A46C05D179998
:1030200090476D1C7F1C4745F6DBE0030CD55B46E3
:103030002146179A059800F09FF9054404E03020D6
:103040005A46179990476D1C0099481E0090002918
:10305000F5DC08E0029802995A460078491C029172
:10306000179990476D1CBAF10001AAF1010AF1DC31
:1030700065E100000928010030313233343536373C
:1030800038396162636465660000000030313233B4
:103090003435363738394142434445460000000054
:1030A00000F058F90544761C307800287FF4ECAD28
:1030B00019B02846BDE8F08F620700D4062709F151
:1030C000070222F0070CFCE80223E14603F0004867
:1030D0005FEA080C02D00FF2702C0DE05FEA045C8E
:1030E00002D50FF2682C07E05FEAC47C02D00FF231
:1030F000602C01E0AFF2700C4FF0FF3823F000437A
:10310000CDF850C065280CD006DC452809D04628EB
:103110001DD047283DD13DE0662818D067287ED1D4
:1031200038E00021112F01DB112000E0781CCDE9EF
:10313000000106A90EA8FFF7DDFCDDE90F010E9ADC
:1031400003910021009207F1010A04914DE04FF034
:1031500000400097CDE9011006A90EA8FFF7CAFCB0
:10316000DDE90F0203920E9B11990022DDF80CA0FD
:103170000093049211B9791C00EB010AB7EB0A0025
:1031800004D4C0F1FF3007F1010A0490AAEB070054
:10319000019044E0012F00DA01270021112F01DD09
:1031A000112000E03846CDE9000106A90EA8FFF77E
:1031B000A1FCDDE90F010E9A039100210491009218
:1031C000BA4621070CD40399514500DA8A46BAF170
:1031D000010F05DD009AAAF10101515C302908D0E8
:1031E000B84202DA10F1040F06DA0121CDE901102C
:1031F00015E0AAF10101E9E7002805DC0499014482
:103200000491AAEB000102E0411C514500DD8A4611
:103210000499401A401C01904FF000400290200792
:1032200004D40198504501DBCDF8048000208DF8CE
:103230004F0002980DF14F07B0F1004F25D02B2021
:103240000E9002984FF0020800280CDA40420290DB
:103250002D200E9007E00A210298FDF7FBF930318E
:10326000029007F8011DB8F10001A8F10108F2DC95
:1032700002980028EFD1791E0E980870307800F07F
:10328000200040F0450007F8020D12A8C01B00F115
:1032900007081498007800B1012000EB0A0101989A
:1032A00001EBE07105984144401A401E0590E0038F
:1032B00006D45B462146179A059800F05DF8054450
:1032C0001498007818B15A46179990476D1CE0037E
:1032D00024D55B462146179A059800F04DF8054421
:1032E0001CE00498002807DBDDE90301884203DDC8
:1032F0000098405C179901E0179930205A46904792
:10330000049805F10105401C04900198401E0190AD
:1033100004D12E205A46179990476D1CBAF100012E
:10332000AAF1010ADDDC05E017F8010B5A461799EE
:1033300090476D1CB8F10001A8F10108F4DC5B4670
:103340002146179A0598ABE62D0000002B000000DF
:10335000200000002DE9F041044600251E461746D6
:10336000880404D405E039462020B0476D1C641E53
:10337000F9D52846BDE8F0812DE9F0410446002545
:103380001E469046C80301D5302700E02027880458
:1033900004D505E041463846B0476D1C641EF9D59A
:1033A0002846BDE8F0810A68531C0B601070704716
:1033B0000020074A01461154401C3228FBDD044A14
:1033C0000020323A1154401C3228FBDD70470000C7
:1033D0004401002010B51A4930380A2806D2DFE827
:1033E00000F0080B16191C1F2225282B91ED060B47
:1033F00006E09FED140B01E09FED140B81ED060B31
:1034000051EC100BFDF70AF900EE100A10BD9FED0C
:10341000110BF3E79FED110BF0E79FED120BEDE7BA
:103420009FED120BEAE79FED130BE7E79FED130B00
:10343000E4E79FED140BE1E79FED140BDEE70000DE
:10344000000000200000000000000000000000005C
:103450000000F03F000000000000004000000000FD
:1034600000000840000000000000104000000000C4
:1034700000001440000000000000184000000000A0
:1034800000001C4000000000000020400000000080
:1034900000002240F0B599B00120ADF800000220F4
:1034A0000325ADF80200ADF804502E460027412256
:1034B00026A12748FEF7D4FB254982B20123A1F1BA
:1034C0004000FEF7D8F8234C2088FDF74BFA2A4637
:1034D00021A11F48FEF7C4FB1D4982B20123A1F1BF
:1034E0004000FEF7C8F82088FDF73CFA0025761E5C
:1034F00015E03DB3012D27D018A11548FEF7B0FB0C
:10350000134982B20123A1F14000FEF7B4F82088EC
:10351000FDF728FA3DF815006D1C384487B2B54216
:10352000E7DD3A460CA10A48FEF79AFB084982B249
:103530000123A1F14000FEF79EF82088FDF712FA62
:1035400019B0F0BD0BA1D8E710A1D6E725630A009A
:10355000E00000200000002025640A005665727318
:10356000696F6E4E756D3A53544D33324634303771
:1035700056470A0044657669636520496E666F7236
:103580006D6174696F6E3A0A000000004D6F6465EA
:103590006C3A41524D20436F727465782D4D340A58
:1035A000000000002DE9F0419AB020AE002796E817
:1035B0003010ADF80000ADF80420ADF80210ADF801
:1035C00008400726ADF80630ADF80A50ADF80CC03B
:1035D000432226A12648FEF743FB254982B2012358
:1035E000A1F14000FEF747F8224D2888FDF7BAF90F
:1035F000324621A11E48FEF733FB1D4982B201234A
:10360000A1F14000FEF737F82888FDF7ABF9002458
:10361000E846761E15E000BF38F8142016A11448BD
:10362000FEF71EFB124982B20123A1F14000FEF712
:1036300022F82888FDF796F938F81400641C3844FD
:1036400087B2B442E8DD3A460BA10948FEF708FB11
:10365000074982B20123A1F14000FEF70CF8288847
:10366000FDF780F91AB0BDE8F081000025630A007B
:10367000E00000200000002025640A0082B0CDE9AF
:10368000000121F0004001909DED000B02B051ECD3
:10369000100B704710B5002000F044F800242020E3
:1036A00000F060F8641C642CF9DB10BD10B532200A
:1036B000FDF758F9302000F035F80520FDF752F9F4
:1036C000302000F02FF80120FDF74CF9302000F0F9
:1036D00029F80A20FDF746F9202000F023F80A20F7
:1036E000FDF740F9282000F01DF80120FDF73AF918
:1036F000082000F017F80120FDF734F9012000F050
:1037000011F80120FDF72EF90120FDF72BF9062015
:1037100000F008F80120FDF725F9BDE810400C2065
:10372000AFF300801CB500F0F00141F00C028DF801
:10373000042041F0080100018DF8051040F00C0153
:103740008DF8061040F008008DF807006420009006
:10375000042301AA4E210248FDF7C2FA1CBD000055
:103760004C0000201CB500F0F00141F00D028DF876
:10377000042041F0090100018DF8051040F00D0111
:103780008DF8061040F009008DF8070064200090C5
:10379000042301AA4E210248FDF7A2FA1CBD000035
:1037A0004C00002010B5044602E0641CFFF7DAFF6D
:1037B00020780028F9D110BD2DED0C8B84B0FDF7D9
:1037C00061FBFEF735F9FEF7E5F8FF48FD494FF0DC
:1037D000000801604FF4E131C0E901180C21C0F884
:1037E0000C80C0E90481C0F818804446C0F81C80F1
:1037F000FDF77AFEF448F54954380160F449C0E910
:1038000001144FF48041C0E9034144618461C46103
:103810000462FDF7A1F9FFF749FFC020FFF782FF1F
:10382000ECA0FFF7BFFF4FF47A742046FDF79AF83B
:10383000FFF730FF9FEDECBB9FEDEDCBA1469FED79
:10384000EEABDFF884A3EE4C0AF1720ADE494E4675
:103850004B4632227231DC48FDF7AEFEDA48E9A170
:103860004030FEF7FDF9D84982B201234031D648F5
:10387000FDF701FF2088FDF775F8FFF70BFF8020AB
:10388000FFF750FFE5A0FFF78DFFCF487230FFF73D
:1038900089FFC020FFF746FFE4A0FFF783FF9420D5
:1038A000FFF740FFE4A0FFF77DFFD420FFF73AFFCA
:1038B000E3A0FFF777FFC448E5A14030FEF7D0F959
:1038C000C14982B201234031BF48FDF7D4FE2088B0
:1038D000FDF748F89AF800005546412802D04228E2
:1038E00026D091E2FFF7D6FE8020FFF71BFFDCA079
:1038F000FFF758FFB4487230FFF754FF012211035D
:10390000DC48FDF71DF9FFF7C5FD9420FFF70AFF1E
:10391000D9A0FFF747FFD420FFF704FFDAA0FFF795
:1039200041FF40F6B830FDF71DF885F80080C4E28D
:10393000FFF7B0FE8020FFF7F5FEC9A0FFF732FFCA
:10394000A1487230FFF72EFF9F4F9AF80020D6371C
:10395000C8483A7001228AF800805103FDF7F0F858
:10396000CEA1A7F19600FEF77BF982B20123A7F161
:1039700096019548FDF77FFE2088FCF7F3FFA7F13D
:103980003205B146904901233222A4318E48FDF719
:1039900013FE2878492834D0522832D0562830D007
:1039A00050282ED08848C1A14030FEF759F98649E9
:1039B00082B20A2340318448FDF75DFE6420FCF7A3
:1039C000D1FF8148BEA14030FEF74AF97E4982B25C
:1039D0000A2340317C48FDF74EFE4E464846FCF730
:1039E000C1FF7948BAA14030FEF73AF9764982B270
:1039F0000A2340317448FDF73EFE3046FCF7B2FF23
:103A0000C0E7C020FFF78EFEB5A0FFF7CBFE6E48E3
:103A1000A430FFF7C7FE287878706B483E46B4A103
:103A20004030FEF71DF9684982B2012340316648F3
:103A3000FDF721FE2088FCF795FF63482A78B0A1A6
:103A40004030FEF70DF9604982B2012340315E48F3
:103A5000FDF711FE2088FCF785FF5B48ACA14030E4
:103A6000FEF7FEF8584982B2012340315648FDF76F
:103A700002FE2088DCE10026A85D2E2804D1304615
:103A8000FCF770FDC4E90C01761C322EF4DD4E48C3
:103A9000A430FCF7D8FB20610120FCF763FF94ED14
:103AA0000C0BB0EE4A9AF0EE6A9A53EC192B51ECDB
:103AB000100BFCF79BFD32D101262DE0A81910F860
:103AC000010CFFF787FC10EE100AFCF77BFDC4E940
:103AD00008012069801BFCF745FD41EC110BB0EE9D
:103AE0004C0AF0EE6C0AFEF7F7F894ED081B51EC67
:103AF000100B53EC112BFCF754FC41EC100B84ED34
:103B0000080B53EC102B94ED0A0B51EC100BFCF747
:103B1000A1FBC4E90A01761C20698642CEDD94ED42
:103B20000C0B53EC192B51EC100BFCF75FFD47D03D
:103B30000126B0EE4B8AF0EE6B8A40E0A81910F82F
:103B4000010CFFF747FC10EE100AFCF73BFDC4E93F
:103B500008014BEC1D7B2069FCF704FD94ED0C1B68
:103B600053EC112BFCF717FC53EC1D2BFCF713FC4B
:103B7000B0EE481AF0EE681A53EC112BFCF70BFC70
:103B800041EC110BB0EE4C0AF0EE6C0AFEF7A4F813
:103B900094ED081B51EC100B53EC112BFCF701FCBE
:103BA00041EC100B84ED080B53EC102B94ED0A0B39
:103BB00051EC100BFCF74EFBC4E90A01761CAFE098
:103BC0000DE1000000480040A0000020005400402B
:103BD000A08601005468697320497320546573748A
:103BE00020436F6465000000000000000000F03F0B
:103BF0000000000000002440000000000000000061
:103C0000000000205761697474696E6720466F7206
:103C100020436F6D6D616E640A000000456E74652F
:103C20007220436F6D6D616E643A0000413A204D21
:103C30006F64656C00000000423A204D6F646500BF
:103C4000433A20456666696369656E6379000000E2
:103C5000436F6D6D616E64733A412C422C430A00D0
:103C600053656C656374656420436F6D6D616E644C
:103C70003A000000000C02402020202020202D537C
:103C8000656E6465642D00002020204D6F64656CB6
:103C900020262056657273696F6E000053656C654F
:103CA0006374204D6F64653A0A000000506C6561D2
:103CB00073652053656C656374204D6F64650A00FD
:103CC0004375723A49205265733A520A0000000067
:103CD000566F6C743A5620506F773A500A000000C5
:103CE00053656C6563746564204D6F64653A0000CC
:103CF00053656C6563746564204D6F64653A0A00B2
:103D0000436F6E7374202563204D6F64650A000055
:103D1000456E7465722056616C75653A0A00000044
:103D20002069FCF71FFC94ED0C1B53EC112BFCF7E6
:103D300032FB53EC182BFCF72EFB41EC1D0B3046ED
:103D4000FCF710FC8B464BEC110B074653EC1D2B7C
:103D500051EC110BFCF74AFC7FF6F0AE94ED0C0B26
:103D600053EC182B51EC100BFCF774FAFCF70BFC1E
:103D7000064630E0A85DFFF72DFB10EE100AFCF7B9
:103D800021FCC4E908013046FCF7ECFB94ED0C1B68
:103D900053EC112BFCF7FFFA41EC110BB0EE4C0A7F
:103DA000F0EE6C0AFDF798FF53EC102B94ED080B26
:103DB00051EC100BFCF767FB41EC100B84ED080B8A
:103DC00053EC102B94ED0A0B51EC100BFCF742FA5C
:103DD000C4E90A01761C2069401E8642CADD94208F
:103DE000FFF7A0FC38A0FFF7DDFCD420FFF79AFC1A
:103DF0003948FFF7D7FC4846FCF7B4FD84ED0A9B31
:103E000084ED089BFFF7D4FA9AF800005546432842
:103E10001CD052E0304831A16438FDF721FF2E4913
:103E200082B264390A23A1F14000FDF724FC64202A
:103E3000FCF798FD28494B463222A1F1A400FDF77A
:103E4000BBFB287871788842E4D014E6FFF722FCA7
:103E50008020FFF767FCAFF2F810FFF7A3FC1E48C5
:103E60003238FFF79FFC012291032148FCF768FEDE
:103E70001949012332393222A1F17200FDF79CFB6E
:103E80009420FFF74FFC1BA0FFF78CFCD420FFF71A
:103E900049FC1DA0FFF786FC287858280BD06089C4
:103EA000E289A1898DE807002389E288A1886088DA
:103EB000FFF778FBDCE7FFF77BFA00224FF4704155
:103EC0000B48FCF73DFEC1E453656C6563746564A3
:103ED0002056616C75653A0044010020506C6561A4
:103EE000736520456E7465722056616C75650A00B5
:103EF000000C024020202D53454E44494E4720449B
:103F00004154412D20200000202053656E6420582C
:103F100020746F20657869740000000000B52DEDF5
:103F2000048B83B041EC190BFCF7C8FC41EC180B77
:103F300018EE100A18EE901A8DED008B002818BFAD
:103F40000120084320F00040C0F17F6000F1E04014
:103F5000C00F14D019EE101A19EE900A8DED009BC7
:103F6000002918BF0121084320F00040C0F17F6004
:103F700000F1E040C00F04BF0120FEF7B5FD51EC99
:103F8000180B03B0BDEC048B00BD00000000000066
:103F900000000102030406070809000000000102F6
:103FA0000304000000000000000000000000F03FDB
:103FB000000000000000F83F0000000000000000CA
:103FC0000000004003B8E23F0000000000000000D5
:103FD00006D0CF43EBFD4C3E033333333333E33F63
:103FE000FFAB6FDBB66DDB3F4D268F515555D53F8F
:103FF00001411DA96074D13F65DBC9934A86CD3F5D
:10400000EF4E454A287ECA3F3E5555555555C53F4A
:1040100093BDBE166CC166BF2CDE25AF6A56113F3C
:10402000F16BD2C541BDBBBED0A4BE726937663E3E
:1040300000000000000000005840000800000020C0
:104040004C000000C82A0008A44000084C000020D2
:104050005C050000D82A00080A00C800DC00010046
:104060000100320005001E000000000000000000FA
:104070000000000000000000000000000000000040
:104080000000000000000000000000000000000030
:104090000100000010000000000000000024F400F7
:0440A000000000001C
:040000050800018965
:00000001FF
