:020000040800F2
:10000000A00500209D0100087B1900088516000846
:1000100079190008B3080008B11B000800000000AF
:100020000000000000000000000000007F19000830
:10003000B5080008000000007D19000881190008BB
:10004000B7010008B7010008B7010008B7010008B0
:10005000B7010008B7010008B7010008B7010008A0
:10006000B7010008B7010008B7010008B701000890
:10007000B7010008B7010008B7010008B701000880
:10008000B7010008B7010008B7010008B701000870
:10009000B7010008B7010008B7010008B701000860
:1000A000B7010008B7010008B7010008B701000850
:1000B000B7010008B7010008B7010008B701000840
:1000C000B7010008B7010008B7010008B701000830
:1000D000B7010008B7010008B7010008B701000820
:1000E000B7010008B7010008B7010008B701000810
:1000F000B7010008B7010008B7010008B701000800
:10010000B7010008B7010008B7010008B7010008EF
:10011000B7010008B7010008B7010008B7010008DF
:10012000B7010008B7010008B7010008B7010008CF
:10013000B7010008B7010008B7010008B7010008BF
:10014000B7010008B7010008B7010008B7010008AF
:10015000B7010008B7010008B7010008B70100089F
:10016000B7010008B7010008B7010008B70100088F
:10017000B7010008B7010008B7010008000000003F
:10018000B7010008B7010008DFF80CD000F02EFB23
:1001900000480047A1310008A0050020064880471C
:1001A00006480047FEE7FEE7FEE7FEE7FEE7FEE75C
:1001B000FEE7FEE7FEE7FEE7091A000889010008EE
:1001C0002DE9F05F0546002092469B46884606468C
:1001D000814640241BE0284641464746224600F01F
:1001E0009CF953465A46C01A914110D311461846FD
:1001F000224600F083F92D1A67EB01084F4622468C
:100200000120002100F07AF917EB00094E41201E71
:10021000A4F10104DFDC484631462A464346BDE8E6
:10022000F09FD2B201E000F8012B491EFBD27047CB
:100230000022F6E710B513460A4604461946FFF7B2
:10024000F0FF204610BD2DE9FE4F804681EA0300F5
:10025000C00F0C46009021F0004123F00045B8EBA0
:100260000200A94105D24046214690461C460B4655
:10027000024623F00040104347D0270DC7F30A0081
:10028000C3F30A510290401A019040286BDAC3F37D
:10029000130040F4801B0098924620B10023D2EB5B
:1002A000030A63EB0B0B01985946C0F1400250461C
:1002B00000F024F906460D4650465946019A00F0D2
:1002C0003CF910EB08006141002487EA115284EAEE
:1002D000E7731A4340D0009A62B3019A012A4FEAA9
:1002E000075215DC001B61EB02014FF0004202EAED
:1002F0000752CDE90042001C41F5801132462B46E1
:1003000000F073F903B0BDE8F08F40462146F9E7ED
:10031000001B61EB0201001C41F5801300185B41DA
:100320002018A2F5001747EB030140EAD570B61973
:100330006D4111E06D084FEA360645EAC0754FEA97
:100340000752001B61EB0201001C41F580114908B6
:100350004FEA30000019514132462B4603B0BDE848
:10036000F04F00F033B90098012240000023D0EB99
:10037000020263EBE073009821464FEAE074B8EBA9
:10038000000061EB0401E9E783F000435BE781F0E3
:10039000004158E72DE9F04D81EA030404F0004BD9
:1003A00021F0004514464FF0000A23F0004150EAC6
:1003B000050220D054EA01021DD0C5F30A570246B7
:1003C000C5F31303C1F31300C1F30A5640F48015BB
:1003D00043F48013A7EB0608101BD64608F2FD383D
:1003E00073EB050002D308F1010801E092185B41AC
:1003F000B8F1000F03DA00200146BDE8F08D0020BF
:100400004FF48011064684460EE0171B73EB050778
:1004100005D3121B63EB050306434CEA010C4908A4
:100420004FEA300092185B4150EA0107EDD152EAE1
:10043000030012D082EA040083EA0501084305D0D4
:10044000101BAB4106D20122002306E000224FF030
:10045000004302E06FF0010253101AEB06004CEB70
:10046000085110EB0A0041EB0B01BDE8F04D00F024
:10047000ADB800F0004230F000400AD0C10D01F5E7
:100480006071C0F3160042EA0151C20840071143EF
:10049000704700200146704701F0004330B421F05E
:1004A000004150EA010206D00A0DA2F56072C1F3C4
:1004B0001301002A02DC30BC00207047440F44EADC
:1004C000C104C100E01830BC00EBC25000F047B8D6
:1004D00030B50B46014600202022012409E021FA14
:1004E00002F59D4205D303FA02F5491B04FA02F511
:1004F0002844151EA2F10102F1DC30BD202A04DBE4
:10050000203A00FA02F1002070479140C2F1200326
:1005100020FA03F3194390407047202A04DB203A65
:1005200021FA02F00021704721FA02F3D040C2F113
:1005300020029140084319467047202A06DBCB175A
:10054000203A41FA02F043EAE07306E041FA02F38E
:10055000D040C2F12002914008431946704700295B
:10056000A8BF7047401C490008BF20F00100704739
:1005700010B4B0FA80FC00FA0CF050EA010404BF99
:1005800010BC704749B1CCF1200421FA04F411FAEF
:100590000CF118BF012121430843A3EB0C01CB1D33
:1005A0004FEA00614FEA102042BF002010BC7047A4
:1005B00000EBC35010440029A4BF10BC7047401C7E
:1005C000490008BF20F0010010BC704710B5141E90
:1005D00073F1000408DA401C41F1000192185B41FC
:1005E0001A4301D120F0010010BD2DE9F04D9246D3
:1005F0009B4611B1B1FA81F202E0B0FA80F22032EA
:100600009046FFF77BFF04460F4640EA0A0041EAA6
:100610000B0153465A46084313D0114653EA0100D2
:1006200019D0C8F140025046FFF777FF05460E4645
:10063000504659464246FFF761FF084305D0012066
:1006400004E020463946BDE8F08D0020054346EA27
:10065000E0762C4337430A986305E40AA0EB0800D0
:100660000022FD0A44EA47540A3002D50020014620
:10067000E9E7010510196941DDE9084500196941FB
:10068000BDE8F04DA2E72DE9FE4F81EA030404F036
:10069000004421F0004100944FF0000B23F0004390
:1006A00050EA01045ED052EA03045BD0C3F30A545B
:1006B000C1F30A552C44A4F2F3340194A0FB025474
:1006C000C1F3130141F48011C3F3130343F4801306
:1006D00001FB024400FB034E840A970A44EA81545A
:1006E00047EA8357A4FB076802958D0A05FB078537
:1006F0004FEA932C04FB0C542705029D4FEA065841
:1007000047EA1637B5EB08056EEB070C870E920E1D
:1007100047EA811742EA8312A7FB0201B6EB0B01FD
:1007200064EB00042B0D43EA0C335E1844EB1C50C1
:10073000DA465146E7FB0201C5F313044FEA0B33D7
:1007400043EA14534FEA0432019C43EA0603A4F13E
:100750000C040294009CCDE900B4FFF746FF03B0FF
:10076000BDE8F08F00200146F9E770B521F00043A5
:1007700003430CD0C1F30A550024D5EB040564EB08
:100780000403D617AD1AB34102DB0020014670BD49
:10079000201841EB025170BD0EB5C10F80EAE07028
:1007A0000844CA07002140F233438DE80E000A4690
:1007B0000B46FFF71AFF03B000BD000030B5041E62
:1007C00071F1000404DB4FF00044404264EB01018E
:1007D000141E73F1000405DB1C464FF00043524227
:1007E00063EB0403994208BF904230BD064C074DAD
:1007F00006E0E06840F0010394E8070098471034F1
:10080000AC42F6D3FFF7C4FC1838000838380008AB
:100810002DE9F04D00231A461B1A8A4103DB002004
:100820000146BDE8F08DC1F30A52C1F3130141F452
:1008300080154FF0000BD10702D100186D41521EF8
:100840000027044640F2FF11384601EB620A3E469B
:100850008046024600204FF48011FFF75EFEC21969
:100860007141BB1846EB0100B4EB030C75EB000CB7
:1008700004D3E41A65EB000517460E46241908F167
:1008800001006D4180463428E3DDF91946EB06008E
:10089000091BA84103D24FF0FF32134601E00022AA
:1008A00013461BEB070046EB0A51BDE8F04DFFF77E
:1008B0008DBEFEE77047000070B5044600F0F0F80A
:1008C0000546601C02D004480078044400F0E8F8B3
:1008D000401BA042FAD370BD300000202DE9F84F34
:1008E00000224FF0010803254FF00F0E0B6808FAA5
:1008F00002F42340A3426ED14E68012E05D0022E91
:1009000003D0112E01D0122E12D186684FEA420C6C
:1009100005FA0CF7BE43CF6807FA0CF73743876038
:100920004668A6430C79C4F30014944034434460F1
:10093000C668570005FA07FC8C6826EA0C06BC401E
:100940003443C4604C68022C01D0122C13D1D4085B
:1009500000EB8404A346D4F8209054074FEAD46AED
:100960000EFA0AF629EA06090E6906FA0AF646EAB6
:100970000906CBF8206006680C7926EA0C0604F01C
:100980000304BC40344304604C68E40065D5364C35
:10099000266846F480462660246822F0030604F4A4
:1009A00080440094314C3444A446D4F80848960757
:1009B000370F0EFA07F6B4432D4EB04201D1002690
:1009C00024E02C4EB04201D101261FE02A4EB04255
:1009D00002D102261AE040E0284EB04201D103269F
:1009E00014E0274EB04201D104260FE0254EB0425C
:1009F00001D105260AE0244EB04201D1062605E0C9
:100A0000224EB04201D1072600E00826BE40264310
:100A1000CCF808681E4E34684F689C43FF0300D52D
:100A20001C4334601A4C241D26684F689E43BF0344
:100A300000D51E432660164E083634684F689C4326
:100A4000FF0200D51C433460114E0C3634684F68E9
:100A50009C43BF0200D51C433460521C102AFFF493
:100A600045AFBDE8F88F0000443802400030014037
:100A7000000002400004024000080240000C024056
:100A8000001002400014024000180240001C024006
:100A9000003C01400AB1816170470904FBE7000096
:100AA00001488068704700003000002070B50400E5
:100AB00025D094F83D00002520B984F83C5020460C
:100AC00000F04EF9242084F83D002068016821F0F0
:100AD000010101602068016841F400410160206863
:100AE000016821F40041016000F094FA4D4A616808
:100AF000914201D84C4900E04C49884201D2012082
:100B000070BD4B492368B0FBF1F15E6826F03F06EB
:100B10000E435E606368934206D94FF4967359435F
:100B20004FF47A73B1FBF3F12368491C1E6A26F077
:100B30003F06314319626168914210D84900401E56
:100B4000B0FBF1F2521CC2F30B02042A01D20420C2
:100B500022E0B0FBF1F0401CC0F30B001CE0A268E7
:100B6000F2B301EBC10303EB0116431EB3FBF6F333
:100B70005B1C43F480431B0549D092B301EBC102D7
:100B800002EB0111401EB0FBF1F0401CC0F30B0062
:100B900040F4804040F400402168CA694CF6FF737D
:100BA0009A431043C861D4E90710014320680268E2
:100BB00022F0C00211430160D4E90301014320681F
:100BC000826848F2FF339A4311438160D4E90501FA
:100BD00008432168CA6822F0FF021043C86001E0A0
:100BE0000EE016E02068016841F001010160256413
:100BF000202084F83D00256384F83E50002070BD1D
:100C000001EB4106431EB3FBF6F35B1CB3E7012087
:100C1000C2E701EB4101401EB0FBF1F0401CC0F304
:100C20000B00B7E7A086010080841E0000093D008C
:100C300040420F002DE9F84F1F4690468A46044671
:100C4000DDF82890FFF72CFF054694F83D0020289A
:100C50007FD11923012240492046009500F09EFDD6
:100C6000002876D194F83C00012872D0012084F845
:100C70003C0020680168C90703D1016841F0010107
:100C800001602068016821F400610160212084F87E
:100C90003D00102084F83E0000262664C4F824801D
:100CA0006785608D20852D48E0622B464A46514677
:100CB000204600F0FFFC90B92068416980690090EF
:100CC00036E02A464946204600F0E7FD50B1206C48
:100CD000042804D12068016841F4007101600120FA
:100CE000BDE8F88F606A216800780861606A401C7E
:100CF0006062618D491E6185218D491E89B2218501
:100D000022685369DB435B070BD451B10078106153
:100D1000606A401C6062608D401E6085208D401EB0
:100D200020852A464946204600F012FD0028CED1F3
:100D3000208D0028C5D154F83D0B016841F40071A5
:100D40000160202004F81E09E67766770020C7E7D7
:100D5000FFE70220C4E70000020010000000FFFFD0
:100D600010B586B0044614216846FFF761FA1349AE
:100D70002068884220D11248016841F002010160D8
:100D80000068694600F002000590C0200090122023
:100D90000190012002900320039004200490094850
:100DA000FFF79CFD06481030016841F40011016016
:100DB000006800F40010059006B010BD005400401B
:100DC0003038024000040240024881680278114431
:100DD00081607047300000200B4810B5016841F475
:100DE00000710160016841F480610160016841F4B3
:100DF00080710160032000F061F8002000F006F827
:100E000000F024F8002010BD003C024070B50D4DEC
:100E100004464FF47A712878B1FBF0F00A4909686A
:100E2000B1FBF0F000F0F6FA48B9102C07D200221E
:100E30002146501E00F022F800206C6070BD012099
:100E400070BD0000300000203C0000200A4808B5BA
:100E5000016841F480410160006800F48040009026
:100E60000548001F016841F080510160006800F0F2
:100E70008050009008BD000044380240F0B40E4B92
:100E80001B680C46C3F30223C3F10705042D00D9E8
:100E90000425191D072901D2002300E0DB1E0126CD
:100EA00006FA05F1491E214099409E40761E1640E3
:100EB0003143F0BC00F0AABE0CED00E0064900F0A2
:100EC000070208684FF6FF03184040EA0220034A71
:100ED00010430860704700000CED00E00000FA05C8
:100EE0002DE9F0470E46050065D0DFF81481D8F8EB
:100EF0000000F7B200F00F00B04207D288F800708F
:100F0000D8F8000000F00F00B04254D128683D4CE2
:100F1000810712D5400703D5206840F4E0502060D7
:100F20002878000703D5206840F4604020602068DE
:100F3000A96820F0F000084320602878C0072DD071
:100F4000304968680839012812D0022813D00328D4
:100F500011D00968890700292DDA216821F00301E1
:100F600001432160FFF79CFD814641F2883A0EE083
:100F700009688903EFE709688901ECE7FFF790FD4D
:100F8000A0EB0901514502D90320BDE8F087206894
:100F9000696800F00C00B0EB810FEFD1D8F80010B9
:100FA000404601F00F01B14207D90770006800F018
:100FB0000F00B04201D00120E7E72878400705D5AF
:100FC0002068E96820F4E050084320602878000792
:100FD00006D52068296920F4604040EAC1002060FD
:100FE00000F038F82168084AC1F30311515CC84089
:100FF0000649086006480068FFF708FF0020C4E7BC
:10100000003C0240083802406A3700083C000020DB
:10101000340000200448054900680968044AC1F307
:101020008221515CC84070473C00002008380240D3
:101030007A3700080448054900680968044AC1F382
:101040004231515CC84070473C00002008380240E3
:101050007A370008154810B5006810F00C021448E3
:1010600013D01449042A0FD0082A0ED10F4C241F84
:101070002268236802F03F025B0207D52068C0F3B4
:101080008810A0FB010106E0084610BD2168C1F3ED
:101090008811A1FB00010023FFF792F82168C1F33A
:1010A0000141491C4900B0FBF1F010BD0838024075
:1010B0000024F40040787D012DE9F84F04006ED043
:1010C0002078DFF83C93C007A9F104054AD009F164
:1010D00004000168C1F38101012908D00068C0F350
:1010E000810002280AD1D9F80000400206D52868FC
:1010F000800337D560680028E1D033E06068B0F540
:10110000803F10D0B0F5A02F286810D020F4803098
:101110002860286820F4802028606068A8B1FFF764
:10112000BFFC06460DE0286840F48030F4E740F448
:1011300080202860F7E700BFFFF7B2FC801B64281F
:1011400073D828688003F7D50CE0FFF7A9FC0646A2
:1011500005E000BFFFF7A4FC801B6428F0D82868D6
:101160008003F7D42078DFF89C8280074FF0000AD4
:101170003ED5A348001D016811F00C0F08D000688F
:10118000C0F3810002280BD1D9F80000400207D437
:101190002868800716D5E068012800D112E02BE10D
:1011A000E068B8B10120C8F80000FFF779FC0646F6
:1011B00005E000BFFFF774FC801B0228C0D8286838
:1011C0008007F7D52868216920F0F80040EAC100BF
:1011D00028600DE0C8F800A0FFF762FC064604E0B6
:1011E000FFF75EFC801B02281FD828688007F7D411
:1011F0002078000722D5824E83486169703671B12C
:1012000001210160FFF74CFC074604E0FFF748FCB2
:10121000C01B022809D830688007F7D50EE0C0F857
:1012200000A0FFF73DFC074605E082E0FFF738FC31
:10123000C01B02287DD830688007F7D4207840078B
:1012400068D5DFF8BCB100270BF13C0BDBF80000E0
:10125000C0000BD4DBF8001041F08051CBF8001037
:10126000DBF80000012700F080500090674E3068E6
:10127000C00510D4306840F480703060FFF710FC77
:10128000009005E0FFF70CFC0099401A022850D8A6
:101290003068C005F6D55A4EA0686C3601280FD0CC
:1012A0000528306810D020F001003060306820F050
:1012B00004003060A068B8B1FFF7F2FB00900FE0C7
:1012C000306840F00100F4E740F004003060F7E7D8
:1012D000FFF7E6FB0099411A41F28830814266D857
:1012E00030688007F4D50EE0FFF7DAFB009007E0E6
:1012F000FFF7D6FB0099411A41F28830814256D857
:1013000030688007F4D42FB1DBF8001021F0805151
:10131000CBF80010A069C8B33949091D0968C1F3A9
:10132000810102294AD00228504607D0C8F860003F
:1013300000E03CE0FFF7B4FB04463BE04746C8F85A
:101340006000FFF7ADFB064605E000BFFFF7A8FB16
:10135000801B02282BD828688001F7D4D4E9070124
:101360000843A16A2A4A490802EB0141626A41EA3C
:101370008211084394F82C1040EA0161C9F800106A
:1013800001203866FFF78CFB044606E036E000BF1C
:10139000FFF786FB001B022809D828688001F7D5D3
:1013A0002CE000BFFFF77CFB001B022802D90320C2
:1013B000BDE8F88F28688001F4D41FE00128F7D039
:1013C000D9F80000E26900F48001914214D1226A48
:1013D00000F03F0191420FD147F6C071626A0140AF
:1013E000914209D1A26A00F44031914204D1E16AEC
:1013F00000F07060884201D00120D9E70020D7E7D3
:101400000438024000004742800E4742007000400E
:101410000000FFFF10B5401EB0F1807F01D3012016
:1014200010BD4FF0E02460610F21601700F0EEFB6B
:101430000020A06107202061002010BD70B50400CD
:1014400004D094F83900002510B106E0012070BDE9
:1014500084F83850204600F023F8242084F839001E
:101460002068C16821F40051C160204600F0DAFA1A
:101470002068016921F4904101612068416921F0EF
:101480002A0141612068C16841F40051C160E563EF
:10149000202084F8390084F83A00002070BD000054
:1014A00010B586B0044614216846FEF7C1FE144903
:1014B0002068884221D113480021026842F480222A
:1014C0000260006800F4802005900E481038026821
:1014D00042F002020260006800F0020005904FF442
:1014E000406000900220CDE9010103200390072015
:1014F000049069460448FFF7F1F906B010BD0000FA
:101500000048004040380240000402402DE9F84302
:10151000044690F83A00994616460D46202852D1C6
:10152000BDB1B6B194F8380001284CD0012084F840
:1015300038000027E763222084F83A002C34FFF7B4
:10154000AFFA24F8026B804624F80A6B04F8387965
:1015500031E00120BDE8F883E08D401EE085A06801
:101560004346B0F5805F4FF000024FF02001204667
:10157000CDF8009004D000F0E9FA98B10320E9E733
:1015800000F0E4FA0028F9D12069002820684068BA
:1015900003D0C1B225F8011B0DE0C0F3080125F806
:1015A000021B08E0206900282068406801D000F094
:1015B0007F0005F8010BE08D0028CDD1202084F8B4
:1015C0003A000020C6E70220C4E72DE9F8430446AC
:1015D00090F839001F4616460D46202850D1B5B167
:1015E000AEB194F8380001284AD0012084F83800C0
:1015F0004FF00008C4F83C80212084F83900FFF740
:101600004FFAA6848146E68484F8388026E00120DB
:10161000BDE8F883E08C401EE084A0684B46B0F53E
:10162000805F4FF000024FF080012046009703D00A
:1016300000F08CFAE8B90DE000F088FAC8B9288803
:101640002168C0F308004860206908B16D1C05E0FE
:10165000AD1C03E0216815F8010B4860E08C002800
:10166000D8D14B46002240212046009700F06EFA68
:1016700008B10320CCE7202084F839000020C7E718
:101680000220C5E7FEE701684A69D24352050FD43C
:101690006FF480624A61002140F8301F20224273BB
:1016A0008173026942F004020261017301207047F4
:1016B00000207047F8B50446C06A1E460D4617461E
:1016C000082807D0012805D010F5803F02D0206BF4
:1016D000122804D12068016841F48071016013462A
:1016E00000224FF001112046009600F057F840B15B
:1016F00020680068C00502D54FF400702064032004
:10170000F8BD2069B0F5804F0ED00620216800EAB0
:10171000D51040F0F000086133463A460B492046A8
:1017200000F070F878B902E005F0FE0000E0E8B2E1
:1017300021680861054933463A46891F204600F072
:1017400061F80028DCD00120F8BD0000080001008D
:1017500070B516460D4604460DE02046FFF793FF90
:1017600008B1012070BD681C05D0FFF799F9801BF6
:10177000A84207D835B120684069C0434007ECD47F
:10178000002070BD002044F8300F20216173A07349
:10179000216941F0200121612073E2E72DE9F04742
:1017A0001E4690460D460446C1F30747DDF82090DB
:1017B00008E0701C06D0FFF773F9A0EB0900B042F7
:1017C0000FD876B12068012F18D0806925EA000073
:1017D0000004000C14D000214145EAD00020BDE8EF
:1017E000F087002044F8300F20216173A073216935
:1017F00041F02001216120730120F0E74069E5E715
:101800000121E9E72DE9F0479A4691460E46044644
:1018100000254FF02008C1F3074725E02068406904
:10182000C043400514D42068016841F40071016090
:1018300021686FF480604861256384F83D8084F8F6
:101840003E50206C40F00400206484F83C501FE0BF
:10185000B9F1FF3F08D0FFF723F9A0EB0A01494592
:101860000CD8B9F1000F09D02068012F13D080697E
:1018700026EA00000004000C0BD0CFE744F8305FEC
:1018800084F80D80A573206940F020002061257345
:101890000120BDE8F0874069EAE770B516460D46BD
:1018A00004460DE02046FFF7EEFE08B1012070BDB2
:1018B000681C05D0FFF7F4F8801BA84207D835B1A3
:1018C00020684069C0430006ECD4002070BD0020B1
:1018D00044F8300F20216173A073216941F0200189
:1018E00021612073E2E70000F0B587B0142168465B
:1018F000FEF79EFC1D480024016841F08001016054
:10190000016801F080010591016841F00101016069
:10191000016801F001010591016841F002010160D7
:10192000016801F002010591016841F008010160C0
:1019300000680F4F00F008004FF470460590002239
:1019400031463846FFF7A6F80125CDE9005469462F
:1019500008480294FEF7C2FF0096CDE9015469469B
:1019600038460394FEF7BAFF07B0F0BD30380240A6
:10197000000C024000000240FEE7704770477047CD
:10198000FFF722BA30B593B030216846FEF750FC1D
:1019900014210CA8FEF74CFC19480025016841F001
:1019A00080510160006800F0805011901548016876
:1019B00041F4804101600068022400F480401190ED
:1019C0000120039010200490009406940820CDE993
:1019D0000750A820CDE9090404200B906846FFF7C2
:1019E0006BFB0CA90F2081E831004FF4A0500F9041
:1019F000E002109005210CA8FFF772FA13B030BD79
:101A000040380240007000400548016841F4700110
:101A1000016003494FF000608039086070470000A2
:101A200088ED00E02DE9F041044600680169E268B4
:101A300021F44051114301612169A068E269084322
:101A40006169114308432168CA6849F20C639A43EB
:101A50000243CA6020684169A26921F440711143C0
:101A60004161E069192764253226B0F5004F354AF7
:101A7000354920684FF0000806D0884201D09042D6
:101A800036D1FFF7D7FA35E0884201D0904202D133
:101A9000FFF7D0FA01E0FFF7BDFA61684A18A0FB32
:101AA000070148EB0803FEF78BFB0146B0FBF5F09E
:101AB0000201B1FBF5F06FF01803584301EB800011
:101AC00006EBC000B0FBF5F000F0F80002EB4002BE
:101AD000B1FBF5F0584301EB800006EBC000B0FB12
:101AE000F5F000F00700216810448860BDE8F0813F
:101AF000FFF790FA61688B0F8A00A0FB0701FEF7E1
:101B00005FFB0146B0FBF5F06FF01802504301EBAC
:101B1000800006EB0010B0FBF5F000F0F002B1FB26
:101B2000F5F002EB0012B1FBF5F06FF0180358432B
:101B300001EB800006EB0010B0FBF5F000F00F00A9
:101B4000D1E7000000140140001001402DE9F041F0
:101B5000984617460E460446069D1DE0681C1BD09D
:101B60002DB1FEF79DFFA0EB0800A84214D9206814
:101B7000C16821F4D071C1602068416921F0010180
:101B80004161202084F8390084F83A00002084F86C
:101B900038000320BDE8F0812068006836EA0000C4
:101BA00004D00020B842D9D00020F3E70120F9E7A3
:101BB000FEE700000FB4084B10B504A902AA039871
:101BC00000F044FF044602A9002001F0E0F820469E
:101BD00010BC5DF814FB00008F2D000803B40198C1
:101BE0004100009850EAC12018BF04204A0D18BFD8
:101BF00040F0010040F2FF72B2EB515F08BF40F0CD
:101C00000200012808BF052002B070470907090E2D
:101C1000002804DB00F1E02080F80014704700F099
:101C20000F0000F1E02080F8141D70470000000054
:101C30002DE9F04D2DED040B2DED0E8B96B0DDE969
:101C40002550279CDDF890A025F0004624F00048A0
:101C5000BAF1000F14BF0121002101EB4502FC493C
:101C600053184A1093422AD3002814BF012300239B
:101C700003EB44030B44F7498B4220D358EA00019D
:101C80009FEDF59B76D0DFF8D8B35D4503D1BAF16F
:101C9000000F05D188E0BAF1000F08BF002100D085
:101CA000012101EB450111F5001F08D8002814BFE0
:101CB0000121002101EB440111F5001F0BD99DED1D
:101CC000261B9DED240B16B0BDEC0E8B04B0BDE8B9
:101CD000F04D00F069BE0027002DBCBFE1498845EA
:101CE00021DAE1498845A8BF02271CDAC3451ADC7E
:101CF000DE4901EB2851142908DDC1F1340220FA34
:101D000002F101FA02F282420DD108E058B9C1F1A4
:101D1000140228FA02F101FA02F2424503D101F05D
:101D20000101C1F1020756EA0A0124D1002C22DA8E
:101D3000002D18BF022F01D0012F0AD0022000F081
:101D40007FFE16B0BDEC0E8B04B0BDE8F04D00F088
:101D500013BE022000F074FE00F00EFE51EC100BDA
:101D600081F0004141EC100B16B0BDEC0E8B04B0BD
:101D7000BDE8F08D18E09FEDBEAB9FEDBF8B002856
:101D800071D1B848804522D105F1804010F580100E
:101D900008BFBAF1000F07D0B3450ADC002CA8BF7A
:101DA0009DED260BE0DA0DE0B0EE490AF0EE690A8F
:101DB000DAE7002C06DA9DED260B51EC100B81F0D2
:101DC00000416FE0AE48784490ED000BCCE7D84579
:101DD0004DD1002C48DA2EB186423AD1BAF1000F2B
:101DE00042D126E0BAF1000F13D0022000F028FE05
:101DF00000F0F6FD8DED020B9DED240B8DED000B3B
:101E000010EE900A039961F31E0003909DED020B02
:101E1000AAE78DED02AB9DED240B1AEE901A10EEA1
:101E2000900A8DED000B61F31E0003909DED020BF7
:101E30009AE78DED028B9DED240B18EE901A10EEB3
:101E4000900A8DED000B61F31E0003909DED020BD7
:101E50008AE709DA9DED240B51EC190B53EC102B9A
:101E6000FEF798FA1EE020E09DED240B7CE7864209
:101E70001BDAB4F1804F0DD0A4F10050B0F1FF5047
:101E800013D1002D11DB9DED240B51EC100B01F053
:101E900035FC07E09DED240B53EC102B51EC100B9F
:101EA00000F0C2BC41EC100B5EE79DED240B51EC41
:101EB000100B01F0D7F8BAF1000FCDE90E0142D1B5
:101EC0009FED710B46B3A6F1E040B0F17F600CD0FE
:101ED0005E4538D1002D00DAA7B3022F0CBF0120D8
:101EE0004FF0FF30FEF758FCDCE7002D01DD002C41
:101EF0000DDA002D01DD002C1FDB002D16DA002C81
:101F000014DB012F08BF9FED620B3FF42DAFB0EE45
:101F10004A0AF0EE6A0A27E7022F18BF002D0CD0FC
:101F2000012F0AD1002DFFF61FAF06E0002DB8BF2C
:101F3000002C08DA012F3FF417AFB0EE480AF0EE9C
:101F4000680A11E71BE0012000EBE57050EA070189
:101F500015D0791EB0EE498AF0EE698A084308BFB1
:101F60009FED4D8B4E480025804570DD4D494E4814
:101F7000884514DDB0420DDB002C19DB2FE0012079
:101F800000F05EFD16B0BDEC0E8B04B0BDE8F04D68
:101F900000F016BDB34502DC002C09DC1FE08642D0
:101FA00002DA002C1BDA03E05E452BDD002C16DD87
:101FB000022000F045FD00F013FD8DED020B53EC07
:101FC0001A2B51EC180BFEF75EFBCDE900010399CB
:101FD000019861F31E0003909DED020BC4E6022000
:101FE00000F02EFD00F00CFD10EE901A18EE900A95
:101FF0008DED020B8DED008B61F31E0003909DEDC6
:10200000020BB1E69DED0E0B53EC192B51EC100BAE
:10201000FEF7BAF99FED260BCDE9080153EC102B22
:102020009DED080B51EC100BFEF72DFB9FED221BD5
:1020300053EC112BFEF7ABF99DED081B53EC112B64
:10204000FEF721FB9FED1E1B53EC112B3CE08CE0B7
:10205000FFFF1F00FFFF0F00000000000000F03F27
:102060000000F03F0000F07F0000404301FCFFFF54
:10207000000000000000F07F0000000000000000F1
:10208000461A000000000000000000000000008070
:10209000000000000000F0FF000000000000F0BFA2
:1020A0000000E0410000F043FFFFEF3F00000000B0
:1020B000000000000000D03F555555555555D53FFF
:1020C000000000000000E03FFEF761F99DED080B05
:1020D00041EC1A0B53EC102B51EC100BFEF7D3FA1A
:1020E00053EC1A2BFEF7CFFA41EC1A0B9FEDFE0BC7
:1020F00053EC102B9DED080B51EC100BFEF7C3FABF
:1021000041EC1B0B9FEDFA0B51EC1A0B53EC102B0F
:10211000FEF7B9FA41EC1A0B9FEDF70B53EC102BBD
:102120009DED080B51EC100BFEF7ADFA53EC1A2B9A
:10213000FEF72AF941EC1A0B51EC1B0B53EC1A2B4E
:10214000FEF781F80690CDE906519DED060B53ECA4
:102150001B2B51EC100BFEF717F953EC1A2BFEF763
:1021600016F941EC100B00F0A1B90020B6F5801F64
:102170000EDA9FEDE30B53EC102B9DED0E0B51ECA3
:10218000100BFEF780FACDE90E016FF034000E4619
:1021900000EB2650A0F2FF37C6F31300DA4940F0F7
:1021A0007F6646F040568842D8BF002408DDD749F4
:1021B0008142C8BF012403DC0024A6F580167F1CE1
:1021C000D348784400EBC4000F9690ED00CB9DED12
:1021D0000E0B53EC1C2B51EC100BFEF7D5F89DEDBC
:1021E0000E0B41EC1B0B53EC1C2B51EC100BFEF7B0
:1021F0002AF841EC100B51EC190B53EC102BFEF7A5
:10220000C9F841EC1D0B51EC1B0B53EC1D2BFEF7D9
:102210003AFA41EC1A0BBF488DED10AB784410959B
:1022200090ED000B4FF0005040EA660000EB844058
:102230008DED080B00F5002009909DED080B53EC87
:102240001C2B51EC100BFEF79FF89DED0E1B53EC71
:10225000112BFEF79CF841EC100B53EC102B9DED6D
:10226000100B51EC100BFEF70EFA9DED080B41EC34
:102270001C0B53EC102B9DED100B51EC100BFEF7CB
:1022800002FA53EC1B2BFEF782F853EC1C2BFEF7E3
:102290007BF853EC1D2BFEF7F6F941EC1C0B53ECCD
:1022A0001A2B51EC1A0BFEF7EEF941EC1B0B9A4876
:1022B0000621B0EE4B0AF0EE6B0A784400F0E0FA2B
:1022C000B0EE401AF0EE601AB0EE41DAF0EE61DAEC
:1022D00053EC1B2B51EC1B0BFEF7D5F953EC1D2BCC
:1022E000FEF7D1F99DED100B41EC1B0B53EC1A2BB3
:1022F00051EC100BFDF7A7FF53EC1C2BFEF7C3F9B5
:1023000053EC1B2BFDF79FFF9DED100B41EC1B0BBE
:1023100053EC102B51EC100BFEF7B5F941EC1D0BF3
:102320009FED7FEB53EC1E2BFDF78DFF53EC1B2B2A
:10233000FDF789FF0890CDE908519DED080B53EC9E
:102340001E2B51EC100BFEF71FF853EC1D2BFEF764
:102350001BF853EC1B2BFEF71AF89DED080B41EC14
:102360001D0B53EC102B9DED100B51EC100BFEF7D9
:102370008AF941EC1B0B53EC1A2B51EC1D0BFEF7A9
:1023800082F99DED080B41EC1A0B53EC102B51EC2C
:102390001C0BFEF778F953EC1A2BFDF754FF41ECB8
:1023A0001A0B51EC1B0B53EC1A2BFDF74CFF0C9046
:1023B000CDE90C519DED0C0B53EC1B2B51EC100B8C
:1023C000FDF7E2FF53EC1A2BFDF7E1FF41EC1B0B8D
:1023D0009FED550B53EC102B9DED0C0B51EC100B9E
:1023E000FEF751F941EC1A0B9FED510B51EC1B0B11
:1023F00053EC102BFEF747F941EC1B0B9FED4E0BF6
:1024000053EC102B9DED0C0B51EC100BFEF73BF930
:1024100053EC1B2BFDF717FF41EC100B4848784499
:1024200000EBC40090ED001B51EC100B53EC112B92
:10243000FDF709FF41EC1B0B3846FEF7ADF9CDE97E
:10244000080153EC1B2B51EC1A0BFDF7FCFE41EC81
:10245000100B3C48784400EBC40090ED00CB51ECED
:10246000100B53EC1C2BFDF7EEFE9DED081B53ECFF
:10247000112BFDF7E8FE0690CDE906519DED080B06
:1024800053EC102B9DED060B51EC100BFDF77CFF70
:1024900053EC1C2BFDF778FF53EC1A2BFDF774FF60
:1024A00053EC1B2BFDF773FF41EC100B9DED261B2E
:1024B00053EC102B8DED001B00959DED260B51EC80
:1024C000100BFEF7E0F89DED000B41EC1A0B53ECFE
:1024D000102B9DED260B51EC100BFDF755FF9DEDDC
:1024E000061B53EC112B2FE0000000604715F73F4F
:1024F000FE822B654715F73F44DF5DF80BAE543E77
:1025000000000000000040438E9803007AB60B00E4
:10251000C2150000F0150000FA14000000000000D1
:102520000000000000000840000000E009C7EE3F86
:10253000FD033ADC09C7EE3FF5015B14E02F3EBE18
:102540008613000040130000FEF79DF853EC1A2B91
:10255000FDF779FE9DED060B41EC1A0B53EC102BA9
:102560009DED000B51EC100BFEF78DF8CDE90C0141
:102570009DED0C0B51EC1A0B53EC102BFDF763FE89
:10258000CDE902010C46AA498C422FDB611A0843AF
:1025900018D19DED0C0B53EC102B9DED020B51EC63
:1025A000100BFDF7F1FE41EC1B0B9FEDA30B51EC63
:1025B0001A0B53EC102BFDF746FE53EC1B2BFEF7CA
:1025C000FDF82DD2022000F03BFA00F009FA10EEDF
:1025D000901A18EE900A8DED020B8DED008B61F3D1
:1025E0001E0003909DED020BFFF7BEBB944A24F042
:1025F0000041914214D39349214408437FF4EFAC46
:102600009DED0C0B53EC102B9DED020B51EC100BC0
:10261000FDF7BAFE53EC1A2BFEF7D0F87FF6DFACCD
:1026200024F000408849894A002601EB205182426B
:102630002BDA481C4FF4801121FA00F02044844A20
:10264000C0F30A517A44A1F2FF3192ED000B814AA6
:102650008DED080BCA4020EA0202C0F3130040F4DB
:102660008010C1F1140120FA01F60992002CB8BFC4
:1026700076429DED080B53EC102B9DED0C0B51ECAD
:10268000100BFDF781FECDE90C019DED0C0B51EC1B
:102690001A0B53EC102BFDF7D6FD9FED6F0B089036
:1026A000CDE9085153EC102B9DED080B51EC100BAC
:1026B000FDF7E9FF41EC1B0B9FED690B53EC102B71
:1026C0009DED080B51EC100BFDF7DDFF9DED0C0BA4
:1026D00041EC1C0B53EC102B9DED080B51EC100B37
:1026E000FDF752FE53EC1A2BFDF751FE9FED5E1BDA
:1026F00053EC112BFDF7C7FF53EC1C2BFDF7A3FD8B
:1027000041EC1A0B51EC1B0B53EC1A2BFDF79BFD04
:10271000CDE902019DED020B53EC1B2B51EC100B8C
:10272000FDF732FE53EC1A2BFDF731FE9DED020B47
:1027300041EC1A0B53EC102B51EC100BFDF7A3FFDF
:10274000CDE908014A489DED080B0521784400F0C9
:1027500097F89DED081B51EC100B53EC112BFDF776
:1027600092FF9DED021B53EC112BFDF710FECDE9FE
:1027700006019DED020B53EC1A2B51EC100BFDF7EB
:1027800082FF53EC1A2BFDF75EFD9FED3B0B41ECF6
:102790001A0B53EC102B9DED060B51EC100BFDF7B3
:1027A000F3FD9DED060B41EC1B0B53EC102B9DED47
:1027B000020B51EC100BFDF766FF53EC1B2BFDF7E2
:1027C000E9FD53EC1A2BFDF7DFFD9DED021B53ECE9
:1027D000112BFDF7D9FD53EC192BFDF7D8FDCDE9F1
:1027E000020101EB065001150029C8BF039015DC5A
:1027F0009DED020B324651EC100BFDF7B6FFFFF7D3
:10280000EDF9042808BF00F0FBF832469DED020BFD
:1028100051EC100BFDF7A9FFCDE902019DED020B74
:1028200051EC180B53EC102BFDF72DFFFFF73ABBC3
:102830000000904000000000FE822B654715973C89
:1028400000CC904000346F3F01FCFFFF0000E03FF0
:10285000C8110000FFFF0F0000000000432EE63FFC
:10286000396CA80C615C20BEEF39FAFE422EE63FBF
:102870009810000000000000000000000000004070
:1028800070B504462DED028B4D1E00EBC500B0EE79
:10289000408AF0EE608A90ED000B35F0060017D00C
:1028A00053EC182B51EC100BFDF7EDFE41EC100B27
:1028B0006D1E04EBC50090ED001B51EC100B53ECAA
:1028C000112BFDF7C0FC41EC100B35F00600E7D1F1
:1028D000022D36D0042D1CD0062D1CBFBDEC028B62
:1028E00070BD53EC182B51EC100BFDF7CCFE94EDA2
:1028F0000A1B53EC112BFDF7A6FC53EC182BFDF72C
:10290000C2FE94ED081B53EC112BFDF79CFC41EC2F
:10291000100B53EC182B51EC100BFDF7B4FE94ED9B
:10292000061B53EC112BFDF78EFC53EC182BFDF717
:10293000AAFE94ED040B53EC102BFDF784FC41EC44
:10294000100B53EC182B51EC100BFDF79CFE94ED83
:10295000021B53EC112BFDF776FC53EC182BFDF703
:1029600092FE94ED001B53EC112BFDF76CFCBDECBB
:10297000028B41EC100B70BD9FED070B10B553ECB3
:10298000102B9FED070B51EC100BFDF703FD41ECF5
:10299000100B10BD0000000000000000000000004F
:1029A000000000000000F03F10B553EC112B51EC7B
:1029B000100BFDF748FC41EC100B10BD00000000AF
:1029C0009FED050B10B553EC102B51EC100BFDF7E0
:1029D000E1FC41EC100B10BD000000000000000005
:1029E0009FED050B10B553EC102B51EC100BFDF7C0
:1029F0004AFE41EC100B10BD00000000000000700A
:102A00009FED050B10B553EC102B51EC100BFDF79F
:102A10003AFE41EC100B10BD000000000000001059
:102A200002E008C8121F08C1002AFAD17047704797
:102A3000002001E001C1121F002AFBD170470000F5
:102A40000149086070470000400000202DE9FF4F59
:102A50008BB088460546002606E025280BD0DDE928
:102A60000D1290476D1C761C28780028F5D10FB008
:102A70003046BDE8F08F0024A146A2460122AE49AF
:102A800000E0044315F8013F203B02FA03F008423E
:102A9000F7D128782A2810D06FF02F022878A0F1DB
:102AA0003001092915D809EB890102EB410144F0F5
:102AB000020400EB01096D1CF0E758F8041B5FEA03
:102AC000010903D544F40054C9F1000944F002049B
:102AD0006D1C28782E2817D115F8010F44F0040436
:102AE0002A280ED06FF02F022878A0F13001092992
:102AF0000AD80AEB8A0102EB410100EB010A6D1CC6
:102B0000F2E758F804AB6D1C28786C280FD006DC6F
:102B10004C2817D068280DD06A2814D104E07428F6
:102B200010D07A280FD10DE044F400140AE044F4E8
:102B3000801401E044F440146978814202D104F524
:102B400080146D1C6D1C2878692865D006DC00286F
:102B50008DD0632827D0642806D15DE06E2808D088
:102B600073282AD0752877D0DDE90D129047761C9E
:102B7000E0E0C4F30250022809D003280DD0D8F8B1
:102B8000001004280DD00E6008F10408D2E0D8F837
:102B90000010F217C1E90062F6E7D8F800100E80C5
:102BA000F2E70E70F0E718F8041B8DF80010002013
:102BB0008DF80100EB46012003E058F804BB4FF00C
:102BC000FF3061074FF0000701D40AE07F1C574532
:102BD0000DDA8742FADB1BF807100029F6D106E070
:102BE0007F1C8742FCDB1BF807100029F8D1DDE9C8
:102BF0000D23A9EB07008146214600F0B1F83044CF
:102C0000C61904E0DDE90D121BF8010B90477F1E89
:102C1000F8D22146484688E058F8040BC4F3025124
:102C20004FF00A0B032900D100B2042900D140B2B1
:102C3000002802DA40422D2102E0210505D52B2192
:102C40008DF82410012104E006E0E10710D02021D6
:102C5000F6E708AF089113E058F8040BC4F30251EB
:102C60004FF00A0B032900D180B2042900D1C0B271
:102C70000021EEE75946FDF72BFC303107F8011D26
:102C80000028F7D1ADEB070000F1200B600702D55B
:102C900024F4803401E04FF0010ADA4502DDAAEBAA
:102CA0000B0000E00020824600EB0B010898014475
:102CB000A9EB01000A90E00306D4DDE90D232146CB
:102CC0000A9800F04DF806444FF0000908E009A901
:102CD00011F80900DDE90D12904709F10109761C90
:102CE00008998945F3DBE0030CD5DDE90D23214686
:102CF0000A9800F035F8064404E0DDE90D123020B2
:102D00009047761CBAF10001AAF1010AF5DC05E052
:102D1000DDE90D1217F8010B9047761CBBF100019D
:102D2000ABF1010BF4DC0A982146DDE90D2300F03C
:102D300005F806446D1C97E6092801002DE9F041CD
:102D4000044600251E461746880404D405E039468B
:102D50002020B0476D1C641EF9D52846BDE8F081DF
:102D60002DE9F041044600251E469046C80301D5D2
:102D7000302700E02027880404D505E04146384686
:102D8000B0476D1C641EF9D52846BDE8F0810A687D
:102D9000531C0B60107070470020074A0146115405
:102DA000401C3228FBDD044A0020323A1154401CFA
:102DB0003228FBDD704700003C01002010B51A49A5
:102DC00030380A2806D2DFE800F0080B16191C1F5D
:102DD0002225282B91ED040B06E09FED140B01E05A
:102DE0009FED140B81ED040B51EC100BFDF754FB20
:102DF00000EE100A10BD9FED110BF3E79FED110BD4
:102E0000F0E79FED120BEDE79FED120BEAE79FED68
:102E1000130BE7E79FED130BE4E79FED140BE1E7DE
:102E20009FED140BDEE70000000000200000000012
:102E300000000000000000000000F03F0000000063
:102E400000000040000000000000084000000000FA
:102E500000001040000000000000144000000000CE
:102E6000000018400000000000001C4000000000AE
:102E7000000020400000000000002240F0B599B0A2
:102E80000120ADF8000002200325ADF80200ADF8E6
:102E900004502E460027412226A12748FEF78AFE2D
:102EA000254982B20123A1F14000FEF78EFB234C9D
:102EB0002088FDF701FD2A4621A11F48FEF77AFE72
:102EC0001D4982B20123A1F14000FEF77EFB20885C
:102ED000FDF7F2FC0025761E15E03DB3012D27D04D
:102EE00018A11548FEF766FE134982B20123A1F12D
:102EF0004000FEF76AFB2088FDF7DEFC3DF8150078
:102F00006D1C384487B2B542E7DD3A460CA10A4849
:102F1000FEF750FE084982B20123A1F14000FEF7FE
:102F200054FB2088FDF7C8FC19B0F0BD0BA1D8E711
:102F300010A1D6E725630A00D80000200000002079
:102F400025640A0056657273696F6E4E756D3A534B
:102F5000544D33324634303756470A00446576695B
:102F6000636520496E666F726D6174696F6E3A0AAF
:102F7000000000004D6F64656C3A41524D20436F74
:102F8000727465782D4D340A000000002DE9F0417F
:102F90009AB020AE002796E83010ADF80000ADF8EA
:102FA0000420ADF80210ADF808400726ADF8063051
:102FB000ADF80A50ADF80CC0432226A12648FEF712
:102FC000F9FD254982B20123A1F14000FEF7FDFA87
:102FD000224D2888FDF770FC324621A11E48FEF7DD
:102FE000E9FD1D4982B20123A1F14000FEF7EDFA8F
:102FF0002888FDF761FC0024E846761E15E000BF36
:1030000038F8142016A11448FEF7D4FD124982B2F4
:103010000123A1F14000FEF7D8FA2888FDF74CFC07
:1030200038F81400641C384487B2B442E8DD3A46EC
:103030000BA10948FEF7BEFD074982B20123A1F1A9
:103040004000FEF7C2FA2888FDF736FC1AB0BDE84A
:10305000F081000025630A00D80000200000002055
:1030600025640A0082B0CDE9000121F00040019002
:103070009DED000B02B051EC100B704710B5002015
:1030800000F044F80024202000F060F8641C642C58
:10309000F9DB10BD10B53220FDF70EFC302000F03A
:1030A00035F80520FDF708FC302000F02FF801204E
:1030B000FDF702FC302000F029F80A20FDF7FCFBA8
:1030C000202000F023F80A20FDF7F6FB282000F06E
:1030D0001DF80120FDF7F0FB082000F017F8012093
:1030E000FDF7EAFB012000F011F80120FDF7E4FBF9
:1030F0000120FDF7E1FB062000F008F80120FDF7B4
:10310000DBFBBDE810400C20AFF300801CB500F0E5
:10311000F00141F00C028DF8042041F0080100019B
:103120008DF8051040F00C018DF8061040F00800F5
:103130008DF8070064200090042301AA4E21024864
:10314000FDF778FD1CBD0000440000201CB500F018
:10315000F00141F00D028DF8042041F00901000159
:103160008DF8051040F00D018DF8061040F00900B3
:103170008DF8070064200090042301AA4E21024824
:10318000FDF758FD1CBD00004400002010B50446AA
:1031900002E0641CFFF7DAFF20780028F9D110BDA7
:1031A0000EB5FDF719FEFEF7EDFBFEF79DFBF748A8
:1031B000F5494FF0000801604FF4E131C0E9011812
:1031C0000C21C0F80C80C0E90481C0F81880444686
:1031D000C0F81C80FEF732F9EC48ED4954384FF442
:1031E000804A0160EB49C0E90114C0E9034A446127
:1031F0008461C4610462FDF759FCFFF74BFFC020F6
:10320000FFF784FFE4A0FFF7C1FF4FF4FA60FDF77A
:1032100053FBFFF733FFDFF874B3E44C0BF1A40B5F
:103220004FF47A79ABF13207D8494D464B463222FA
:103230007231D648FEF76AF9D448DDA14030FEF776
:10324000B9FCD24982B201234031D048FEF7BDF922
:103250002088FDF731FBFFF711FF8020FFF756FFB5
:10326000D9A0FFF793FFC9487230FFF78FFFC02046
:10327000FFF74CFFD8A0FFF789FF9420FFF746FF28
:10328000D8A0FFF783FFD420FFF740FFD7A0FFF7B8
:103290007DFFBE48D9A14030FEF78CFCBB4982B20D
:1032A00001234031B948FEF790F92088FDF704FB6F
:1032B0003878412814D101221103D448FDF7EAFBE4
:1032C000FFF7DCFD87F80080FFF7D8FE8020FFF7CE
:1032D0001DFFCFA0FFF75AFFAC487230FFF756FF33
:1032E000387842287ED1FFF7C9FE8020FFF70EFF15
:1032F000C7A0FFF74BFFA5487230FFF747FFA34E6B
:103300003878D6360122307087F800805103BF48E4
:10331000FDF7C0FBC3A1A6F19600FEF74BFC82B2FD
:103320000123A6F196019948FEF74FF92088FDF791
:10333000C3FAA9465D46954901233222A431934838
:10334000FEF7E4F82878492833D0522831D056289F
:103350002FD050282DD08D48B6A14030FEF72AFC42
:103360008A4982B20A2340318848FEF72EF9642048
:10337000FDF7A2FA8548B4A14030FEF71BFC834953
:1033800082B20A2340318148FEF71FF94846FDF713
:1033900093FA7E48B0A14030FEF70CFC7B4982B224
:1033A0000A2340317948FEF710F94846FDF784FAC0
:1033B000C1E7C020FFF7AAFEABA0FFF7E7FE734806
:1033C000A430FFF7E3FE287870707048AAA140305F
:1033D000FEF7F0FB6D4982B2012340316B48FEF7E6
:1033E000F4F800E07BE02088FDF766FA67482A7869
:1033F000A5A14030FEF7DEFB644982B201234031D3
:103400006248FEF7E2F82088FDF756FA5F48A2A16D
:103410004030FEF7CFFB5D4982B2012340315B486B
:10342000FEF7D3F820889EE00026A85DFFF7C6FCD3
:1034300010EE100AFDF71DF841EC100B84ED060BA1
:1034400053EC102B94ED080B51EC100BFCF7FBFE2A
:10345000C4E90801A85D2E2825D1A8194078FFF7F6
:10346000ADFC10EE100AFDF704F841EC100B84EDF2
:10347000060B94ED0A1BFEF7DBFB53EC102B94EDCF
:10348000060B51EC100BFCF785FF41EC100B84EDA3
:10349000060B53EC102B94ED080B51EC100BFCF7C2
:1034A000D2FEC4E90801761C322EBEDD9420FFF75F
:1034B0002DFE7DA0FFF76AFED420FFF727FE3348DC
:1034C000A430FFF763FE4FF4FA60FDF7F5F99FEDC6
:1034D0007A0B84ED080B84ED060BFFF75DFC387862
:1034E00043287FF4A1AEFFF7C9FD8020FFF70EFE51
:1034F00047A0FFF74BFE25487230FFF747FE012239
:1035000051464248FDF7C6FA204901233222723162
:103510001E48FDF7FBFF9420FFF7F8FD68A0FFF7BA
:1035200035FED420FFF7F2FD6AA0FFF72FFE3878B2
:10353000582826D06089E289A1898DE8070023896F
:10354000E288A1886088FFF721FDDDE70F4866A1CA
:103550004030FEF72FFB0D4982B20A2340310B4861
:10356000FEF733F86420FDF7A7F908494B463222ED
:10357000A4310648FDF7CAFF287871788842E5D063
:1035800052E7FFF709FC4FE6004800409800002092
:1035900000540040A08601005468697320497320DC
:1035A0005465737420436F646500000000000020C0
:1035B0005761697474696E6720466F7220436F6D3E
:1035C0006D616E640A000000456E74657220436F81
:1035D0006D6D616E643A0000413A204D6F64656C18
:1035E00000000000423A204D6F646500433A2045D8
:1035F0006666696369656E6379000000436F6D6D8F
:10360000616E64733A412C422C430A00000C024064
:1036100053656C656374656420436F6D6D616E64A2
:103620003A00000053656C656374204D6F64653A21
:103630000A000000506C656173652053656C65631A
:1036400074204D6F64650A004375723A49205265D3
:10365000733A520A00000000566F6C743A562050BC
:103660006F773A500A00000053656C6563746564B7
:10367000204D6F64653A000053656C656374656442
:10368000204D6F64653A0A00436F6E7374202563A2
:10369000204D6F64650A0000456E746572205661A6
:1036A0006C75653A0A00000053656C656374656467
:1036B0002056616C75653A000000000000000000B3
:1036C00020202D53454E44494E4720444154412D1E
:1036D00020200000202053656E64205820746F2045
:1036E0006578697400000000506C65617365204561
:1036F0006E7465722056616C75650A0000B52DED1B
:10370000048B83B041EC190BFDF782F841EC180BE8
:1037100018EE100A18EE901A8DED008B002818BFD5
:103720000120084320F00040C0F17F6000F1E0403C
:10373000C00F14D019EE101A19EE900A8DED009BEF
:10374000002918BF0121084320F00040C0F17F602C
:1037500000F1E040C00F04BF0120FFF771F951EC08
:10376000180B03B0BDEC048B00BD0000000000008E
:10377000000001020304060708090000000001021E
:103780000304000000000000000000000000F03F03
:10379000000000000000F83F0000000000000000F2
:1037A0000000004003B8E23F0000000000000000FD
:1037B00006D0CF43EBFD4C3E033333333333E33F8B
:1037C000FFAB6FDBB66DDB3F4D268F515555D53FB7
:1037D00001411DA96074D13F65DBC9934A86CD3F85
:1037E000EF4E454A287ECA3F3E5555555555C53F73
:1037F00093BDBE166CC166BF2CDE25AF6A56113F65
:10380000F16BD2C541BDBBBED0A4BE726937663E66
:103810000000000000000000383800080000002010
:1038200044000000202A00087C38000844000020E2
:103830005C050000302A00080A00C800DC00010016
:103840000100320005001E00000000000000000022
:103850000000000000000000000000000000000068
:10386000000000000000F03F010000001000000018
:0C387000000000000024F4000000000034
:040000050800018965
:00000001FF
